{
  "contractName": "KnowlageToken",
  "abi": [
    {
      "inputs": [],
      "stateMutability": "nonpayable",
      "type": "constructor"
    },
    {
      "anonymous": false,
      "inputs": [
        {
          "indexed": true,
          "internalType": "address",
          "name": "owner",
          "type": "address"
        },
        {
          "indexed": true,
          "internalType": "address",
          "name": "spender",
          "type": "address"
        },
        {
          "indexed": false,
          "internalType": "uint256",
          "name": "value",
          "type": "uint256"
        }
      ],
      "name": "Approval",
      "type": "event"
    },
    {
      "anonymous": false,
      "inputs": [
        {
          "indexed": true,
          "internalType": "bytes32",
          "name": "role",
          "type": "bytes32"
        },
        {
          "indexed": true,
          "internalType": "bytes32",
          "name": "previousAdminRole",
          "type": "bytes32"
        },
        {
          "indexed": true,
          "internalType": "bytes32",
          "name": "newAdminRole",
          "type": "bytes32"
        }
      ],
      "name": "RoleAdminChanged",
      "type": "event"
    },
    {
      "anonymous": false,
      "inputs": [
        {
          "indexed": true,
          "internalType": "bytes32",
          "name": "role",
          "type": "bytes32"
        },
        {
          "indexed": true,
          "internalType": "address",
          "name": "account",
          "type": "address"
        },
        {
          "indexed": true,
          "internalType": "address",
          "name": "sender",
          "type": "address"
        }
      ],
      "name": "RoleGranted",
      "type": "event"
    },
    {
      "anonymous": false,
      "inputs": [
        {
          "indexed": true,
          "internalType": "bytes32",
          "name": "role",
          "type": "bytes32"
        },
        {
          "indexed": true,
          "internalType": "address",
          "name": "account",
          "type": "address"
        },
        {
          "indexed": true,
          "internalType": "address",
          "name": "sender",
          "type": "address"
        }
      ],
      "name": "RoleRevoked",
      "type": "event"
    },
    {
      "anonymous": false,
      "inputs": [
        {
          "indexed": true,
          "internalType": "address",
          "name": "from",
          "type": "address"
        },
        {
          "indexed": true,
          "internalType": "address",
          "name": "to",
          "type": "address"
        },
        {
          "indexed": false,
          "internalType": "uint256",
          "name": "value",
          "type": "uint256"
        }
      ],
      "name": "Transfer",
      "type": "event"
    },
    {
      "inputs": [],
      "name": "DEFAULT_ADMIN_ROLE",
      "outputs": [
        {
          "internalType": "bytes32",
          "name": "",
          "type": "bytes32"
        }
      ],
      "stateMutability": "view",
      "type": "function"
    },
    {
      "inputs": [],
      "name": "LASTEST_VERSION",
      "outputs": [
        {
          "internalType": "string",
          "name": "",
          "type": "string"
        }
      ],
      "stateMutability": "view",
      "type": "function"
    },
    {
      "inputs": [],
      "name": "MINTER_ROLE",
      "outputs": [
        {
          "internalType": "bytes32",
          "name": "",
          "type": "bytes32"
        }
      ],
      "stateMutability": "view",
      "type": "function"
    },
    {
      "inputs": [
        {
          "internalType": "address",
          "name": "owner",
          "type": "address"
        },
        {
          "internalType": "address",
          "name": "spender",
          "type": "address"
        }
      ],
      "name": "allowance",
      "outputs": [
        {
          "internalType": "uint256",
          "name": "",
          "type": "uint256"
        }
      ],
      "stateMutability": "view",
      "type": "function"
    },
    {
      "inputs": [
        {
          "internalType": "address",
          "name": "spender",
          "type": "address"
        },
        {
          "internalType": "uint256",
          "name": "amount",
          "type": "uint256"
        }
      ],
      "name": "approve",
      "outputs": [
        {
          "internalType": "bool",
          "name": "",
          "type": "bool"
        }
      ],
      "stateMutability": "nonpayable",
      "type": "function"
    },
    {
      "inputs": [
        {
          "internalType": "address",
          "name": "account",
          "type": "address"
        }
      ],
      "name": "balanceOf",
      "outputs": [
        {
          "internalType": "uint256",
          "name": "",
          "type": "uint256"
        }
      ],
      "stateMutability": "view",
      "type": "function"
    },
    {
      "inputs": [],
      "name": "decimals",
      "outputs": [
        {
          "internalType": "uint8",
          "name": "",
          "type": "uint8"
        }
      ],
      "stateMutability": "view",
      "type": "function"
    },
    {
      "inputs": [
        {
          "internalType": "address",
          "name": "spender",
          "type": "address"
        },
        {
          "internalType": "uint256",
          "name": "subtractedValue",
          "type": "uint256"
        }
      ],
      "name": "decreaseAllowance",
      "outputs": [
        {
          "internalType": "bool",
          "name": "",
          "type": "bool"
        }
      ],
      "stateMutability": "nonpayable",
      "type": "function"
    },
    {
      "inputs": [
        {
          "internalType": "bytes32",
          "name": "role",
          "type": "bytes32"
        }
      ],
      "name": "getRoleAdmin",
      "outputs": [
        {
          "internalType": "bytes32",
          "name": "",
          "type": "bytes32"
        }
      ],
      "stateMutability": "view",
      "type": "function"
    },
    {
      "inputs": [
        {
          "internalType": "bytes32",
          "name": "role",
          "type": "bytes32"
        },
        {
          "internalType": "address",
          "name": "account",
          "type": "address"
        }
      ],
      "name": "grantRole",
      "outputs": [],
      "stateMutability": "nonpayable",
      "type": "function"
    },
    {
      "inputs": [
        {
          "internalType": "bytes32",
          "name": "role",
          "type": "bytes32"
        },
        {
          "internalType": "address",
          "name": "account",
          "type": "address"
        }
      ],
      "name": "hasRole",
      "outputs": [
        {
          "internalType": "bool",
          "name": "",
          "type": "bool"
        }
      ],
      "stateMutability": "view",
      "type": "function"
    },
    {
      "inputs": [
        {
          "internalType": "address",
          "name": "spender",
          "type": "address"
        },
        {
          "internalType": "uint256",
          "name": "addedValue",
          "type": "uint256"
        }
      ],
      "name": "increaseAllowance",
      "outputs": [
        {
          "internalType": "bool",
          "name": "",
          "type": "bool"
        }
      ],
      "stateMutability": "nonpayable",
      "type": "function"
    },
    {
      "inputs": [],
      "name": "name",
      "outputs": [
        {
          "internalType": "string",
          "name": "",
          "type": "string"
        }
      ],
      "stateMutability": "view",
      "type": "function"
    },
    {
      "inputs": [
        {
          "internalType": "bytes32",
          "name": "role",
          "type": "bytes32"
        },
        {
          "internalType": "address",
          "name": "account",
          "type": "address"
        }
      ],
      "name": "renounceRole",
      "outputs": [],
      "stateMutability": "nonpayable",
      "type": "function"
    },
    {
      "inputs": [
        {
          "internalType": "bytes32",
          "name": "role",
          "type": "bytes32"
        },
        {
          "internalType": "address",
          "name": "account",
          "type": "address"
        }
      ],
      "name": "revokeRole",
      "outputs": [],
      "stateMutability": "nonpayable",
      "type": "function"
    },
    {
      "inputs": [
        {
          "internalType": "bytes4",
          "name": "interfaceId",
          "type": "bytes4"
        }
      ],
      "name": "supportsInterface",
      "outputs": [
        {
          "internalType": "bool",
          "name": "",
          "type": "bool"
        }
      ],
      "stateMutability": "view",
      "type": "function"
    },
    {
      "inputs": [],
      "name": "symbol",
      "outputs": [
        {
          "internalType": "string",
          "name": "",
          "type": "string"
        }
      ],
      "stateMutability": "view",
      "type": "function"
    },
    {
      "inputs": [],
      "name": "totalSupply",
      "outputs": [
        {
          "internalType": "uint256",
          "name": "",
          "type": "uint256"
        }
      ],
      "stateMutability": "view",
      "type": "function"
    },
    {
      "inputs": [
        {
          "internalType": "address",
          "name": "to",
          "type": "address"
        },
        {
          "internalType": "uint256",
          "name": "amount",
          "type": "uint256"
        }
      ],
      "name": "transfer",
      "outputs": [
        {
          "internalType": "bool",
          "name": "",
          "type": "bool"
        }
      ],
      "stateMutability": "nonpayable",
      "type": "function"
    },
    {
      "inputs": [
        {
          "internalType": "address",
          "name": "from",
          "type": "address"
        },
        {
          "internalType": "address",
          "name": "to",
          "type": "address"
        },
        {
          "internalType": "uint256",
          "name": "amount",
          "type": "uint256"
        }
      ],
      "name": "transferFrom",
      "outputs": [
        {
          "internalType": "bool",
          "name": "",
          "type": "bool"
        }
      ],
      "stateMutability": "nonpayable",
      "type": "function"
    },
    {
      "inputs": [
        {
          "internalType": "address",
          "name": "account",
          "type": "address"
        },
        {
          "internalType": "uint256",
          "name": "amount",
          "type": "uint256"
        }
      ],
      "name": "mintTo",
      "outputs": [],
      "stateMutability": "nonpayable",
      "type": "function"
    }
  ],
  "bytecode": "0x60806040523480156200001157600080fd5b50604051806040016040528060088152602001674b6e6f776c61676560c01b815250604051806040016040528060048152602001634b4e4f5760e01b815250816003908162000061919062000202565b50600462000070828262000202565b505050620000ae7f9f2df0fed2c77648de5860a4cc508cd0818c85b8b8a1ab4ceeef8d981c8956a6620000a8620000b460201b60201c565b620000b8565b620002ce565b3390565b60008281526005602090815260408083206001600160a01b038516845290915290205460ff16620001595760008281526005602090815260408083206001600160a01b03851684529091529020805460ff19166001179055620001183390565b6001600160a01b0316816001600160a01b0316837f2f8788117e7eff1d82e926ec794901d17c78024a50270940304540a733656f0d60405160405180910390a45b5050565b634e487b7160e01b600052604160045260246000fd5b600181811c908216806200018857607f821691505b602082108103620001a957634e487b7160e01b600052602260045260246000fd5b50919050565b601f821115620001fd57600081815260208120601f850160051c81016020861015620001d85750805b601f850160051c820191505b81811015620001f957828155600101620001e4565b5050505b505050565b81516001600160401b038111156200021e576200021e6200015d565b62000236816200022f845462000173565b84620001af565b602080601f8311600181146200026e5760008415620002555750858301515b600019600386901b1c1916600185901b178555620001f9565b600085815260208120601f198616915b828110156200029f578886015182559484019460019091019084016200027e565b5085821015620002be5787850151600019600388901b60f8161c191681555b5050505050600190811b01905550565b61107080620002de6000396000f3fe608060405234801561001057600080fd5b50600436106101375760003560e01c806341e0c7d4116100b8578063a217fddf1161007c578063a217fddf1461029a578063a457c2d7146102a2578063a9059cbb146102b5578063d5391393146102c8578063d547741f146102ef578063dd62ed3e1461030257600080fd5b806341e0c7d41461021e578063449a52f81461024357806370a082311461025657806391d148541461027f57806395d89b411461029257600080fd5b8063248a9ca3116100ff578063248a9ca3146101b15780632f2ff15d146101d4578063313ce567146101e957806336568abe146101f8578063395093511461020b57600080fd5b806301ffc9a71461013c57806306fdde0314610164578063095ea7b31461017957806318160ddd1461018c57806323b872dd1461019e575b600080fd5b61014f61014a366004610d73565b610315565b60405190151581526020015b60405180910390f35b61016c61034c565b60405161015b9190610dc1565b61014f610187366004610e10565b6103de565b6002545b60405190815260200161015b565b61014f6101ac366004610e3a565b6103f6565b6101906101bf366004610e76565b60009081526005602052604090206001015490565b6101e76101e2366004610e8f565b61041a565b005b6040516012815260200161015b565b6101e7610206366004610e8f565b610444565b61014f610219366004610e10565b6104c7565b61016c6040518060400160405280600681526020016576312e302e3160d01b81525081565b6101e7610251366004610e10565b6104e9565b610190610264366004610ebb565b6001600160a01b031660009081526020819052604090205490565b61014f61028d366004610e8f565b610557565b61016c610582565b610190600081565b61014f6102b0366004610e10565b610591565b61014f6102c3366004610e10565b61060c565b6101907f9f2df0fed2c77648de5860a4cc508cd0818c85b8b8a1ab4ceeef8d981c8956a681565b6101e76102fd366004610e8f565b61061a565b610190610310366004610ed6565b61063f565b60006001600160e01b03198216637965db0b60e01b148061034657506301ffc9a760e01b6001600160e01b03198316145b92915050565b60606003805461035b90610f00565b80601f016020809104026020016040519081016040528092919081815260200182805461038790610f00565b80156103d45780601f106103a9576101008083540402835291602001916103d4565b820191906000526020600020905b8154815290600101906020018083116103b757829003601f168201915b5050505050905090565b6000336103ec81858561066a565b5060019392505050565b60003361040485828561078e565b61040f858585610808565b506001949350505050565b600082815260056020526040902060010154610435816109ac565b61043f83836109b9565b505050565b6001600160a01b03811633146104b95760405162461bcd60e51b815260206004820152602f60248201527f416363657373436f6e74726f6c3a2063616e206f6e6c792072656e6f756e636560448201526e103937b632b9903337b91039b2b63360891b60648201526084015b60405180910390fd5b6104c38282610a3f565b5050565b6000336103ec8185856104da838361063f565b6104e49190610f50565b61066a565b6105137f9f2df0fed2c77648de5860a4cc508cd0818c85b8b8a1ab4ceeef8d981c8956a633610557565b61054d5760405162461bcd60e51b815260206004820152600b60248201526a27a7262cafa6a4a72a22a960a91b60448201526064016104b0565b6104c38282610aa6565b60009182526005602090815260408084206001600160a01b0393909316845291905290205460ff1690565b60606004805461035b90610f00565b6000338161059f828661063f565b9050838110156105ff5760405162461bcd60e51b815260206004820152602560248201527f45524332303a2064656372656173656420616c6c6f77616e63652062656c6f77604482015264207a65726f60d81b60648201526084016104b0565b61040f828686840361066a565b6000336103ec818585610808565b600082815260056020526040902060010154610635816109ac565b61043f8383610a3f565b6001600160a01b03918216600090815260016020908152604080832093909416825291909152205490565b6001600160a01b0383166106cc5760405162461bcd60e51b8152602060048201526024808201527f45524332303a20617070726f76652066726f6d20746865207a65726f206164646044820152637265737360e01b60648201526084016104b0565b6001600160a01b03821661072d5760405162461bcd60e51b815260206004820152602260248201527f45524332303a20617070726f766520746f20746865207a65726f206164647265604482015261737360f01b60648201526084016104b0565b6001600160a01b0383811660008181526001602090815260408083209487168084529482529182902085905590518481527f8c5be1e5ebec7d5bd14f71427d1e84f3dd0314c0f7b2291e5b200ac8c7c3b925910160405180910390a3505050565b600061079a848461063f565b9050600019811461080257818110156107f55760405162461bcd60e51b815260206004820152601d60248201527f45524332303a20696e73756666696369656e7420616c6c6f77616e636500000060448201526064016104b0565b610802848484840361066a565b50505050565b6001600160a01b03831661086c5760405162461bcd60e51b815260206004820152602560248201527f45524332303a207472616e736665722066726f6d20746865207a65726f206164604482015264647265737360d81b60648201526084016104b0565b6001600160a01b0382166108ce5760405162461bcd60e51b815260206004820152602360248201527f45524332303a207472616e7366657220746f20746865207a65726f206164647260448201526265737360e81b60648201526084016104b0565b6001600160a01b038316600090815260208190526040902054818110156109465760405162461bcd60e51b815260206004820152602660248201527f45524332303a207472616e7366657220616d6f756e7420657863656564732062604482015265616c616e636560d01b60648201526084016104b0565b6001600160a01b03848116600081815260208181526040808320878703905593871680835291849020805487019055925185815290927fddf252ad1be2c89b69c2b068fc378daa952ba7f163c4a11628f55a4df523b3ef910160405180910390a3610802565b6109b68133610b65565b50565b6109c38282610557565b6104c35760008281526005602090815260408083206001600160a01b03851684529091529020805460ff191660011790556109fb3390565b6001600160a01b0316816001600160a01b0316837f2f8788117e7eff1d82e926ec794901d17c78024a50270940304540a733656f0d60405160405180910390a45050565b610a498282610557565b156104c35760008281526005602090815260408083206001600160a01b0385168085529252808320805460ff1916905551339285917ff6391f5c32d9c69d2a47ea670b442974b53935d1edc7fd64eb21e047a839171b9190a45050565b6001600160a01b038216610afc5760405162461bcd60e51b815260206004820152601f60248201527f45524332303a206d696e7420746f20746865207a65726f20616464726573730060448201526064016104b0565b8060026000828254610b0e9190610f50565b90915550506001600160a01b038216600081815260208181526040808320805486019055518481527fddf252ad1be2c89b69c2b068fc378daa952ba7f163c4a11628f55a4df523b3ef910160405180910390a35050565b610b6f8282610557565b6104c357610b7c81610bbe565b610b87836020610bd0565b604051602001610b98929190610f63565b60408051601f198184030181529082905262461bcd60e51b82526104b091600401610dc1565b60606103466001600160a01b03831660145b60606000610bdf836002610fd8565b610bea906002610f50565b67ffffffffffffffff811115610c0257610c02610ff7565b6040519080825280601f01601f191660200182016040528015610c2c576020820181803683370190505b509050600360fc1b81600081518110610c4757610c4761100d565b60200101906001600160f81b031916908160001a905350600f60fb1b81600181518110610c7657610c7661100d565b60200101906001600160f81b031916908160001a9053506000610c9a846002610fd8565b610ca5906001610f50565b90505b6001811115610d1d576f181899199a1a9b1b9c1cb0b131b232b360811b85600f1660108110610cd957610cd961100d565b1a60f81b828281518110610cef57610cef61100d565b60200101906001600160f81b031916908160001a90535060049490941c93610d1681611023565b9050610ca8565b508315610d6c5760405162461bcd60e51b815260206004820181905260248201527f537472696e67733a20686578206c656e67746820696e73756666696369656e7460448201526064016104b0565b9392505050565b600060208284031215610d8557600080fd5b81356001600160e01b031981168114610d6c57600080fd5b60005b83811015610db8578181015183820152602001610da0565b50506000910152565b6020815260008251806020840152610de0816040850160208701610d9d565b601f01601f19169190910160400192915050565b80356001600160a01b0381168114610e0b57600080fd5b919050565b60008060408385031215610e2357600080fd5b610e2c83610df4565b946020939093013593505050565b600080600060608486031215610e4f57600080fd5b610e5884610df4565b9250610e6660208501610df4565b9150604084013590509250925092565b600060208284031215610e8857600080fd5b5035919050565b60008060408385031215610ea257600080fd5b82359150610eb260208401610df4565b90509250929050565b600060208284031215610ecd57600080fd5b610d6c82610df4565b60008060408385031215610ee957600080fd5b610ef283610df4565b9150610eb260208401610df4565b600181811c90821680610f1457607f821691505b602082108103610f3457634e487b7160e01b600052602260045260246000fd5b50919050565b634e487b7160e01b600052601160045260246000fd5b8082018082111561034657610346610f3a565b7f416363657373436f6e74726f6c3a206163636f756e7420000000000000000000815260008351610f9b816017850160208801610d9d565b7001034b99036b4b9b9b4b733903937b6329607d1b6017918401918201528351610fcc816028840160208801610d9d565b01602801949350505050565b6000816000190483118215151615610ff257610ff2610f3a565b500290565b634e487b7160e01b600052604160045260246000fd5b634e487b7160e01b600052603260045260246000fd5b60008161103257611032610f3a565b50600019019056fea26469706673582212205c582a7f74b04f19765503947917d8a1e83b4d6f7525ba5b5efd1bc3ec5e39da64736f6c63430008100033",
  "immutableReferences": {},
  "source": "// SPDX-License-Identifier: SimPL-2.0\n\npragma solidity ^0.8.0;\n\nimport \"@openzeppelin/contracts/token/ERC20/ERC20.sol\";\nimport \"@openzeppelin/contracts/access/AccessControl.sol\";\n\ncontract KnowlageToken is ERC20, AccessControl {\n    /** @notice Version of contract */\n    string constant public LASTEST_VERSION = \"v1.0.1\";\n\n    /** @notice The role of access control - (mint role) */\n    bytes32 constant public MINTER_ROLE = keccak256(\"MINTER_ROLE\");\n\n    constructor() ERC20(\"Knowlage\", \"KNOW\") {\n        _grantRole(MINTER_ROLE, _msgSender());\n    }\n\n    function mintTo(address account, uint256 amount) public {\n        require(hasRole(MINTER_ROLE, _msgSender()), \"ONLY_MINTER\");\n        _mint(account, amount);\n    }\n}",
  "sourcePath": "/Users/cea/Projects/myself/knowlage-dapp/contracts/know-token/KnowlageToken.sol",
  "compiler": {
    "name": "solc",
    "version": "0.8.16+commit.07a7930e.Emscripten.clang"
  },
  "schemaVersion": "3.4.9",
  "updatedAt": "2022-12-13T17:38:38.866Z",
  "devdoc": {
    "kind": "dev",
    "methods": {
      "allowance(address,address)": {
        "details": "See {IERC20-allowance}."
      },
      "approve(address,uint256)": {
        "details": "See {IERC20-approve}. NOTE: If `amount` is the maximum `uint256`, the allowance is not updated on `transferFrom`. This is semantically equivalent to an infinite approval. Requirements: - `spender` cannot be the zero address."
      },
      "balanceOf(address)": {
        "details": "See {IERC20-balanceOf}."
      },
      "decimals()": {
        "details": "Returns the number of decimals used to get its user representation. For example, if `decimals` equals `2`, a balance of `505` tokens should be displayed to a user as `5.05` (`505 / 10 ** 2`). Tokens usually opt for a value of 18, imitating the relationship between Ether and Wei. This is the value {ERC20} uses, unless this function is overridden; NOTE: This information is only used for _display_ purposes: it in no way affects any of the arithmetic of the contract, including {IERC20-balanceOf} and {IERC20-transfer}."
      },
      "decreaseAllowance(address,uint256)": {
        "details": "Atomically decreases the allowance granted to `spender` by the caller. This is an alternative to {approve} that can be used as a mitigation for problems described in {IERC20-approve}. Emits an {Approval} event indicating the updated allowance. Requirements: - `spender` cannot be the zero address. - `spender` must have allowance for the caller of at least `subtractedValue`."
      },
      "getRoleAdmin(bytes32)": {
        "details": "Returns the admin role that controls `role`. See {grantRole} and {revokeRole}. To change a role's admin, use {_setRoleAdmin}."
      },
      "grantRole(bytes32,address)": {
        "details": "Grants `role` to `account`. If `account` had not been already granted `role`, emits a {RoleGranted} event. Requirements: - the caller must have ``role``'s admin role. May emit a {RoleGranted} event."
      },
      "hasRole(bytes32,address)": {
        "details": "Returns `true` if `account` has been granted `role`."
      },
      "increaseAllowance(address,uint256)": {
        "details": "Atomically increases the allowance granted to `spender` by the caller. This is an alternative to {approve} that can be used as a mitigation for problems described in {IERC20-approve}. Emits an {Approval} event indicating the updated allowance. Requirements: - `spender` cannot be the zero address."
      },
      "name()": {
        "details": "Returns the name of the token."
      },
      "renounceRole(bytes32,address)": {
        "details": "Revokes `role` from the calling account. Roles are often managed via {grantRole} and {revokeRole}: this function's purpose is to provide a mechanism for accounts to lose their privileges if they are compromised (such as when a trusted device is misplaced). If the calling account had been revoked `role`, emits a {RoleRevoked} event. Requirements: - the caller must be `account`. May emit a {RoleRevoked} event."
      },
      "revokeRole(bytes32,address)": {
        "details": "Revokes `role` from `account`. If `account` had been granted `role`, emits a {RoleRevoked} event. Requirements: - the caller must have ``role``'s admin role. May emit a {RoleRevoked} event."
      },
      "supportsInterface(bytes4)": {
        "details": "See {IERC165-supportsInterface}."
      },
      "symbol()": {
        "details": "Returns the symbol of the token, usually a shorter version of the name."
      },
      "totalSupply()": {
        "details": "See {IERC20-totalSupply}."
      },
      "transfer(address,uint256)": {
        "details": "See {IERC20-transfer}. Requirements: - `to` cannot be the zero address. - the caller must have a balance of at least `amount`."
      },
      "transferFrom(address,address,uint256)": {
        "details": "See {IERC20-transferFrom}. Emits an {Approval} event indicating the updated allowance. This is not required by the EIP. See the note at the beginning of {ERC20}. NOTE: Does not update the allowance if the current allowance is the maximum `uint256`. Requirements: - `from` and `to` cannot be the zero address. - `from` must have a balance of at least `amount`. - the caller must have allowance for ``from``'s tokens of at least `amount`."
      }
    },
    "version": 1
  },
  "userdoc": {
    "kind": "user",
    "methods": {
      "LASTEST_VERSION()": {
        "notice": "Version of contract "
      },
      "MINTER_ROLE()": {
        "notice": "The role of access control - (mint role) "
      }
    },
    "version": 1
  }
}