{
  "contractName": "MajorFactory",
  "abi": [
    {
      "inputs": [
        {
          "internalType": "address",
          "name": "tmpl",
          "type": "address"
        },
        {
          "internalType": "address[5]",
          "name": "addrs",
          "type": "address[5]"
        }
      ],
      "stateMutability": "nonpayable",
      "type": "constructor"
    },
    {
      "anonymous": false,
      "inputs": [
        {
          "indexed": false,
          "internalType": "address",
          "name": "subject",
          "type": "address"
        },
        {
          "indexed": false,
          "internalType": "address",
          "name": "admin",
          "type": "address"
        },
        {
          "indexed": false,
          "internalType": "uint256",
          "name": "blockNumber",
          "type": "uint256"
        }
      ],
      "name": "AddSubjectForMajor",
      "type": "event"
    },
    {
      "anonymous": false,
      "inputs": [
        {
          "indexed": false,
          "internalType": "bytes32",
          "name": "majorId",
          "type": "bytes32"
        },
        {
          "indexed": false,
          "internalType": "address",
          "name": "admin",
          "type": "address"
        },
        {
          "indexed": false,
          "internalType": "uint256",
          "name": "blockNumber",
          "type": "uint256"
        }
      ],
      "name": "OpenMajor",
      "type": "event"
    },
    {
      "anonymous": false,
      "inputs": [
        {
          "indexed": false,
          "internalType": "address",
          "name": "account",
          "type": "address"
        }
      ],
      "name": "Paused",
      "type": "event"
    },
    {
      "anonymous": false,
      "inputs": [
        {
          "indexed": true,
          "internalType": "bytes32",
          "name": "role",
          "type": "bytes32"
        },
        {
          "indexed": true,
          "internalType": "bytes32",
          "name": "previousAdminRole",
          "type": "bytes32"
        },
        {
          "indexed": true,
          "internalType": "bytes32",
          "name": "newAdminRole",
          "type": "bytes32"
        }
      ],
      "name": "RoleAdminChanged",
      "type": "event"
    },
    {
      "anonymous": false,
      "inputs": [
        {
          "indexed": true,
          "internalType": "bytes32",
          "name": "role",
          "type": "bytes32"
        },
        {
          "indexed": true,
          "internalType": "address",
          "name": "account",
          "type": "address"
        },
        {
          "indexed": true,
          "internalType": "address",
          "name": "sender",
          "type": "address"
        }
      ],
      "name": "RoleGranted",
      "type": "event"
    },
    {
      "anonymous": false,
      "inputs": [
        {
          "indexed": true,
          "internalType": "bytes32",
          "name": "role",
          "type": "bytes32"
        },
        {
          "indexed": true,
          "internalType": "address",
          "name": "account",
          "type": "address"
        },
        {
          "indexed": true,
          "internalType": "address",
          "name": "sender",
          "type": "address"
        }
      ],
      "name": "RoleRevoked",
      "type": "event"
    },
    {
      "anonymous": false,
      "inputs": [
        {
          "indexed": false,
          "internalType": "bytes32",
          "name": "majorId",
          "type": "bytes32"
        },
        {
          "indexed": false,
          "internalType": "address",
          "name": "admin",
          "type": "address"
        },
        {
          "indexed": false,
          "internalType": "uint256",
          "name": "status",
          "type": "uint256"
        }
      ],
      "name": "ToggleMajorStatus",
      "type": "event"
    },
    {
      "anonymous": false,
      "inputs": [
        {
          "indexed": false,
          "internalType": "bytes32",
          "name": "majorId",
          "type": "bytes32"
        },
        {
          "indexed": false,
          "internalType": "address",
          "name": "admin",
          "type": "address"
        },
        {
          "indexed": false,
          "internalType": "address",
          "name": "subject",
          "type": "address"
        },
        {
          "indexed": false,
          "internalType": "uint256",
          "name": "status",
          "type": "uint256"
        }
      ],
      "name": "ToggleSubjectStatus",
      "type": "event"
    },
    {
      "anonymous": false,
      "inputs": [
        {
          "indexed": false,
          "internalType": "address",
          "name": "account",
          "type": "address"
        }
      ],
      "name": "Unpaused",
      "type": "event"
    },
    {
      "inputs": [],
      "name": "ADMIN_ROLE",
      "outputs": [
        {
          "internalType": "bytes32",
          "name": "",
          "type": "bytes32"
        }
      ],
      "stateMutability": "view",
      "type": "function"
    },
    {
      "inputs": [],
      "name": "DEFAULT_ADMIN_ROLE",
      "outputs": [
        {
          "internalType": "bytes32",
          "name": "",
          "type": "bytes32"
        }
      ],
      "stateMutability": "view",
      "type": "function"
    },
    {
      "inputs": [],
      "name": "LASTEST_VERSION",
      "outputs": [
        {
          "internalType": "string",
          "name": "",
          "type": "string"
        }
      ],
      "stateMutability": "view",
      "type": "function"
    },
    {
      "inputs": [
        {
          "internalType": "bytes32",
          "name": "role",
          "type": "bytes32"
        }
      ],
      "name": "getRoleAdmin",
      "outputs": [
        {
          "internalType": "bytes32",
          "name": "",
          "type": "bytes32"
        }
      ],
      "stateMutability": "view",
      "type": "function"
    },
    {
      "inputs": [
        {
          "internalType": "bytes32",
          "name": "role",
          "type": "bytes32"
        },
        {
          "internalType": "address",
          "name": "account",
          "type": "address"
        }
      ],
      "name": "grantRole",
      "outputs": [],
      "stateMutability": "nonpayable",
      "type": "function"
    },
    {
      "inputs": [
        {
          "internalType": "bytes32",
          "name": "role",
          "type": "bytes32"
        },
        {
          "internalType": "address",
          "name": "account",
          "type": "address"
        }
      ],
      "name": "hasRole",
      "outputs": [
        {
          "internalType": "bool",
          "name": "",
          "type": "bool"
        }
      ],
      "stateMutability": "view",
      "type": "function"
    },
    {
      "inputs": [],
      "name": "paused",
      "outputs": [
        {
          "internalType": "bool",
          "name": "",
          "type": "bool"
        }
      ],
      "stateMutability": "view",
      "type": "function"
    },
    {
      "inputs": [
        {
          "internalType": "uint256",
          "name": "",
          "type": "uint256"
        }
      ],
      "name": "proxys",
      "outputs": [
        {
          "internalType": "address",
          "name": "",
          "type": "address"
        }
      ],
      "stateMutability": "view",
      "type": "function"
    },
    {
      "inputs": [
        {
          "internalType": "bytes32",
          "name": "role",
          "type": "bytes32"
        },
        {
          "internalType": "address",
          "name": "account",
          "type": "address"
        }
      ],
      "name": "renounceRole",
      "outputs": [],
      "stateMutability": "nonpayable",
      "type": "function"
    },
    {
      "inputs": [
        {
          "internalType": "bytes32",
          "name": "role",
          "type": "bytes32"
        },
        {
          "internalType": "address",
          "name": "account",
          "type": "address"
        }
      ],
      "name": "revokeRole",
      "outputs": [],
      "stateMutability": "nonpayable",
      "type": "function"
    },
    {
      "inputs": [],
      "name": "subjectTemplate",
      "outputs": [
        {
          "internalType": "address",
          "name": "",
          "type": "address"
        }
      ],
      "stateMutability": "view",
      "type": "function"
    },
    {
      "inputs": [
        {
          "internalType": "bytes4",
          "name": "interfaceId",
          "type": "bytes4"
        }
      ],
      "name": "supportsInterface",
      "outputs": [
        {
          "internalType": "bool",
          "name": "",
          "type": "bool"
        }
      ],
      "stateMutability": "view",
      "type": "function"
    },
    {
      "inputs": [],
      "name": "getMajors",
      "outputs": [
        {
          "internalType": "string[]",
          "name": "majors",
          "type": "string[]"
        }
      ],
      "stateMutability": "view",
      "type": "function"
    },
    {
      "inputs": [
        {
          "internalType": "bytes32",
          "name": "majorId",
          "type": "bytes32"
        }
      ],
      "name": "getSubjects",
      "outputs": [
        {
          "internalType": "string[]",
          "name": "subjects",
          "type": "string[]"
        }
      ],
      "stateMutability": "view",
      "type": "function"
    },
    {
      "inputs": [
        {
          "internalType": "address",
          "name": "templ",
          "type": "address"
        }
      ],
      "name": "setSubjectTemplate",
      "outputs": [],
      "stateMutability": "nonpayable",
      "type": "function"
    },
    {
      "inputs": [
        {
          "internalType": "string",
          "name": "majorURI",
          "type": "string"
        }
      ],
      "name": "openMajor",
      "outputs": [],
      "stateMutability": "nonpayable",
      "type": "function"
    },
    {
      "inputs": [
        {
          "internalType": "bytes32",
          "name": "majorId",
          "type": "bytes32"
        },
        {
          "internalType": "uint256",
          "name": "status",
          "type": "uint256"
        }
      ],
      "name": "toggleMajorStatus",
      "outputs": [],
      "stateMutability": "nonpayable",
      "type": "function"
    },
    {
      "inputs": [
        {
          "internalType": "bytes32",
          "name": "majorId",
          "type": "bytes32"
        },
        {
          "internalType": "string",
          "name": "subjectURI",
          "type": "string"
        }
      ],
      "name": "addSubjectForMajor",
      "outputs": [],
      "stateMutability": "nonpayable",
      "type": "function"
    },
    {
      "inputs": [
        {
          "internalType": "bytes32",
          "name": "majorId",
          "type": "bytes32"
        },
        {
          "internalType": "address",
          "name": "subject",
          "type": "address"
        },
        {
          "internalType": "uint256",
          "name": "status",
          "type": "uint256"
        }
      ],
      "name": "toggleSubjectStatus",
      "outputs": [],
      "stateMutability": "nonpayable",
      "type": "function"
    }
  ],
  "bytecode": "0x60806040523480156200001157600080fd5b5060405162001af338038062001af38339810160408190526200003491620001df565b600180546001600160a81b0319166101006001600160a01b0385160217905562000062600282600562000138565b506200008f7fa49807205ce4d355092ef5a8a18f56e8913cf4a201fbe287825b095693c217753362000097565b505062000282565b6000828152602081815260408083206001600160a01b038516845290915290205460ff1662000134576000828152602081815260408083206001600160a01b03851684529091529020805460ff19166001179055620000f33390565b6001600160a01b0316816001600160a01b0316837f2f8788117e7eff1d82e926ec794901d17c78024a50270940304540a733656f0d60405160405180910390a45b5050565b826005810192821562000183579160200282015b828111156200018357825182546001600160a01b0319166001600160a01b039091161782556020909201916001909101906200014c565b506200019192915062000195565b5090565b5b8082111562000191576000815560010162000196565b80516001600160a01b0381168114620001c457600080fd5b919050565b634e487b7160e01b600052604160045260246000fd5b60008060c08385031215620001f357600080fd5b620001fe83620001ac565b9150602084603f8501126200021257600080fd5b60405160a081016001600160401b0381118282101715620002375762000237620001c9565b6040528060c08601878111156200024d57600080fd5b8387015b8181101562000273576200026581620001ac565b835291840191840162000251565b50505080925050509250929050565b61186180620002926000396000f3fe608060405234801561001057600080fd5b50600436106101205760003560e01c8063584db37d116100ad578063a217fddf11610071578063a217fddf1461029c578063aff84ece146102a4578063d547741f146102b7578063e0f0a20f146102ca578063fe5eee73146102dd57600080fd5b8063584db37d146102435780635c975abb1461025657806375b238fc1461026157806391d14854146102765780639eaf24981461028957600080fd5b80631c585e67116100f45780631c585e67146101a7578063248a9ca3146101ba5780632f2ff15d146101eb57806336568abe146101fe57806341e0c7d41461021157600080fd5b80625f61591461012557806301ffc9a71461013a5780631296278114610162578063147075c314610177575b600080fd5b61013861013336600461123d565b6102f0565b005b61014d61014836600461125a565b610355565b60405190151581526020015b60405180910390f35b61016a61038c565b60405161015991906112d4565b60015461018f9061010090046001600160a01b031681565b6040516001600160a01b039091168152602001610159565b61016a6101b5366004611336565b6104eb565b6101dd6101c8366004611336565b60009081526020819052604090206001015490565b604051908152602001610159565b6101386101f936600461134f565b61067f565b61013861020c36600461134f565b6106a9565b6102366040518060400160405280600681526020016576312e302e3160d01b81525081565b604051610159919061137f565b610138610251366004611435565b610727565b60015460ff1661014d565b6101dd60008051602061180c83398151915281565b61014d61028436600461134f565b610a03565b61013861029736600461147c565b610a2c565b6101dd600081565b61018f6102b2366004611336565b610b08565b6101386102c536600461134f565b610b28565b6101386102d836600461149e565b610b4d565b6101386102eb3660046114d6565b610c9b565b61030860008051602061180c83398151915233610a03565b61032d5760405162461bcd60e51b815260040161032490611513565b60405180910390fd5b600180546001600160a01b0390921661010002610100600160a81b0319909216919091179055565b60006001600160e01b03198216637965db0b60e01b148061038657506301ffc9a760e01b6001600160e01b03198316145b92915050565b60606103986007610da0565b67ffffffffffffffff8111156103b0576103b0611392565b6040519080825280602002602001820160405280156103e357816020015b60608152602001906001900390816103ce5790505b50905060005b81518110156104e75760006103ff600783610daa565b6000818152600960205260409020600101549091501561041f57506104d5565b6000818152600960205260409020805461043890611537565b80601f016020809104026020016040519081016040528092919081815260200182805461046490611537565b80156104b15780601f10610486576101008083540402835291602001916104b1565b820191906000526020600020905b81548152906001019060200180831161049457829003601f168201915b50505050508383815181106104c8576104c861156b565b6020026020010181905250505b806104df81611597565b9150506103e9565b5090565b600081815260096020526040902060609061050890600201610da0565b67ffffffffffffffff81111561052057610520611392565b60405190808252806020026020018201604052801561055357816020015b606081526020019060019003908161053e5790505b50905060005b815181101561067957600083815260096020526040812061057d9060020183610daa565b6001600160a01b0381166000908152600a6020526040902060010154909150156105a75750610667565b6001600160a01b0381166000908152600a6020526040902080546105ca90611537565b80601f01602080910402602001604051908101604052809291908181526020018280546105f690611537565b80156106435780601f1061061857610100808354040283529160200191610643565b820191906000526020600020905b81548152906001019060200180831161062657829003601f168201915b505050505083838151811061065a5761065a61156b565b6020026020010181905250505b8061067181611597565b915050610559565b50919050565b60008281526020819052604090206001015461069a81610dbd565b6106a48383610dca565b505050565b6001600160a01b03811633146107195760405162461bcd60e51b815260206004820152602f60248201527f416363657373436f6e74726f6c3a2063616e206f6e6c792072656e6f756e636560448201526e103937b632b9903337b91039b2b63360891b6064820152608401610324565b6107238282610e4e565b5050565b61073f60008051602061180c83398151915233610a03565b61075b5760405162461bcd60e51b815260040161032490611513565b610766600783610eb3565b156107a05760405162461bcd60e51b815260206004820152600a6024820152694e4f545f45584953545360b01b6044820152606401610324565b60006107be60018054906101000a90046001600160a01b0316610ecb565b604051631fb4172760e31b81529091506001600160a01b0382169063fda0b938906107f290339060029087906004016115b0565b600060405180830381600087803b15801561080c57600080fd5b505af1158015610820573d6000803e3d6000fd5b505050600084815260096020526040902061083f915060020182610f65565b506001600160a01b0381166000908152600a602052604090206108628382611657565b506002546040805163557887a160e11b815290516000926001600160a01b03169163aaf10f429160048083019260209291908290030181865afa1580156108ad573d6000803e3d6000fd5b505050506040513d601f19601f820116820180604052508101906108d19190611717565b90506000819050806001600160a01b0316632f2ff15d826001600160a01b031663d53913936040518163ffffffff1660e01b8152600401602060405180830381865afa158015610925573d6000803e3d6000fd5b505050506040513d601f19601f820116820180604052508101906109499190611734565b6040516001600160e01b031960e084901b16815260048101919091526001600160a01b0386166024820152604401600060405180830381600087803b15801561099157600080fd5b505af11580156109a5573d6000803e3d6000fd5b505050507fd444671749eb9978b9c5ef890c5b62d1b31af912414bc0c20368520146e41582836109d23390565b604080516001600160a01b039384168152929091166020830152439082015260600160405180910390a15050505050565b6000918252602082815260408084206001600160a01b0393909316845291905290205460ff1690565b610a4460008051602061180c83398151915233610a03565b610a605760405162461bcd60e51b815260040161032490611513565b610a6b600783610eb3565b15610aa55760405162461bcd60e51b815260206004820152600a6024820152694e4f545f45584953545360b01b6044820152606401610324565b60008281526009602052604090206001018190557f72546cbc50f82bde8eed98ecbb15238d8ecbc676bd52689b944e4a7de04807a58233604080519283526001600160a01b03909116602083015281018390526060015b60405180910390a15050565b60028160058110610b1857600080fd5b01546001600160a01b0316905081565b600082815260208190526040902060010154610b4381610dbd565b6106a48383610e4e565b610b6560008051602061180c83398151915233610a03565b610b815760405162461bcd60e51b815260040161032490611513565b610b8c600784610eb3565b15610bcc5760405162461bcd60e51b815260206004820152601060248201526f4d414a4f525f4e4f545f45584953545360801b6044820152606401610324565b6000838152600960205260409020610be79060020183610f7a565b15610c255760405162461bcd60e51b815260206004820152600e60248201526d5355425f4e4f545f45584953545360901b6044820152606401610324565b6001600160a01b0382166000908152600a602052604090206001018190557fbd933b5fe427f9e9fe1007d29f099192b7a0d215eac4cc011924dff30fa8f1248333604080519283526001600160a01b039182166020840152908516908201526060810183905260800160405180910390a1505050565b610cb360008051602061180c83398151915233610a03565b610ccf5760405162461bcd60e51b815260040161032490611513565b600081604051602001610ce2919061137f565b60408051601f1981840301815291905280516020909101209050610d07600782610eb3565b610d3c5760405162461bcd60e51b815260206004820152600660248201526513d41153915160d21b6044820152606401610324565b610d47600782610f9c565b506000818152600960205260409020610d608382611657565b506040805182815233602082015243918101919091527f4ea21d6023706592c96c804c6c29bd4f700b59700edd0fe88432193201a9ae3690606001610afc565b6000610386825490565b6000610db68383610fa8565b9392505050565b610dc78133610fd2565b50565b610dd48282610a03565b610723576000828152602081815260408083206001600160a01b03851684529091529020805460ff19166001179055610e0a3390565b6001600160a01b0316816001600160a01b0316837f2f8788117e7eff1d82e926ec794901d17c78024a50270940304540a733656f0d60405160405180910390a45050565b610e588282610a03565b15610723576000828152602081815260408083206001600160a01b0385168085529252808320805460ff1916905551339285917ff6391f5c32d9c69d2a47ea670b442974b53935d1edc7fd64eb21e047a839171b9190a45050565b60008181526001830160205260408120541515610db6565b6000763d602d80600a3d3981f3363d3d373d3d3d363d730000008260601b60e81c176000526e5af43d82803e903d91602b57fd5bf38260781b17602052603760096000f090506001600160a01b038116610f605760405162461bcd60e51b8152602060048201526016602482015275115490cc4c4d8dce8818dc99585d194819985a5b195960521b6044820152606401610324565b919050565b6000610db6836001600160a01b03841661102b565b6001600160a01b03811660009081526001830160205260408120541515610db6565b6000610db6838361102b565b6000826000018281548110610fbf57610fbf61156b565b9060005260206000200154905092915050565b610fdc8282610a03565b61072357610fe98161107a565b610ff483602061108c565b60405160200161100592919061174d565b60408051601f198184030181529082905262461bcd60e51b82526103249160040161137f565b600081815260018301602052604081205461107257508154600181810184556000848152602080822090930184905584548482528286019093526040902091909155610386565b506000610386565b60606103866001600160a01b03831660145b6060600061109b8360026117c2565b6110a69060026117e1565b67ffffffffffffffff8111156110be576110be611392565b6040519080825280601f01601f1916602001820160405280156110e8576020820181803683370190505b509050600360fc1b816000815181106111035761110361156b565b60200101906001600160f81b031916908160001a905350600f60fb1b816001815181106111325761113261156b565b60200101906001600160f81b031916908160001a90535060006111568460026117c2565b6111619060016117e1565b90505b60018111156111d9576f181899199a1a9b1b9c1cb0b131b232b360811b85600f16601081106111955761119561156b565b1a60f81b8282815181106111ab576111ab61156b565b60200101906001600160f81b031916908160001a90535060049490941c936111d2816117f4565b9050611164565b508315610db65760405162461bcd60e51b815260206004820181905260248201527f537472696e67733a20686578206c656e67746820696e73756666696369656e746044820152606401610324565b6001600160a01b0381168114610dc757600080fd5b60006020828403121561124f57600080fd5b8135610db681611228565b60006020828403121561126c57600080fd5b81356001600160e01b031981168114610db657600080fd5b60005b8381101561129f578181015183820152602001611287565b50506000910152565b600081518084526112c0816020860160208601611284565b601f01601f19169290920160200192915050565b6000602080830181845280855180835260408601915060408160051b870101925083870160005b8281101561132957603f198886030184526113178583516112a8565b945092850192908501906001016112fb565b5092979650505050505050565b60006020828403121561134857600080fd5b5035919050565b6000806040838503121561136257600080fd5b82359150602083013561137481611228565b809150509250929050565b602081526000610db660208301846112a8565b634e487b7160e01b600052604160045260246000fd5b600082601f8301126113b957600080fd5b813567ffffffffffffffff808211156113d4576113d4611392565b604051601f8301601f19908116603f011681019082821181831017156113fc576113fc611392565b8160405283815286602085880101111561141557600080fd5b836020870160208301376000602085830101528094505050505092915050565b6000806040838503121561144857600080fd5b82359150602083013567ffffffffffffffff81111561146657600080fd5b611472858286016113a8565b9150509250929050565b6000806040838503121561148f57600080fd5b50508035926020909101359150565b6000806000606084860312156114b357600080fd5b8335925060208401356114c581611228565b929592945050506040919091013590565b6000602082840312156114e857600080fd5b813567ffffffffffffffff8111156114ff57600080fd5b61150b848285016113a8565b949350505050565b6020808252600a908201526927a7262cafa0a226a4a760b11b604082015260600190565b600181811c9082168061154b57607f821691505b60208210810361067957634e487b7160e01b600052602260045260246000fd5b634e487b7160e01b600052603260045260246000fd5b634e487b7160e01b600052601160045260246000fd5b6000600182016115a9576115a9611581565b5060010190565b6001600160a01b038481168252600090602080840186845b60058110156115e75781548516835291830191600191820191016115c8565b505050505060e060c083015261160060e08301846112a8565b95945050505050565b601f8211156106a457600081815260208120601f850160051c810160208610156116305750805b601f850160051c820191505b8181101561164f5782815560010161163c565b505050505050565b815167ffffffffffffffff81111561167157611671611392565b6116858161167f8454611537565b84611609565b602080601f8311600181146116ba57600084156116a25750858301515b600019600386901b1c1916600185901b17855561164f565b600085815260208120601f198616915b828110156116e9578886015182559484019460019091019084016116ca565b50858210156117075787850151600019600388901b60f8161c191681555b5050505050600190811b01905550565b60006020828403121561172957600080fd5b8151610db681611228565b60006020828403121561174657600080fd5b5051919050565b7f416363657373436f6e74726f6c3a206163636f756e7420000000000000000000815260008351611785816017850160208801611284565b7001034b99036b4b9b9b4b733903937b6329607d1b60179184019182015283516117b6816028840160208801611284565b01602801949350505050565b60008160001904831182151516156117dc576117dc611581565b500290565b8082018082111561038657610386611581565b60008161180357611803611581565b50600019019056fea49807205ce4d355092ef5a8a18f56e8913cf4a201fbe287825b095693c21775a26469706673582212208500feccddb2be0faa05888be52078f478fb5aee8067771eca31adc669f360a864736f6c63430008100033",
  "immutableReferences": {},
  "source": "// SPDX-License-Identifier: SimPL-2.0\n\npragma solidity ^0.8.0;\n\nimport \"../know-token/KnowlageToken.sol\";\nimport \"../know-proxy/TokenProxy.sol\";\nimport \"../know-template/SubjectTemplate.sol\";\n\nimport \"@openzeppelin/contracts/access/AccessControl.sol\";\nimport \"@openzeppelin/contracts/security/Pausable.sol\";\n\nimport \"@openzeppelin/contracts/utils/structs/EnumerableSet.sol\";\nimport \"@openzeppelin/contracts/proxy/Clones.sol\";\n\n/**\n * @title Major Factory Contract\n * @notice HorseRace is a NFT horse racing metaverse based on pylogon\n * @notice ....\n *\n * @notice Website: https://horse-racing.io/\n * @notice Docs: https://horse-racing.gitbook.io/horse-racing-docs/\n * \n * @dev Version: v1.0.1\n */\ncontract MajorFactory is AccessControl, Pausable {\n    using EnumerableSet for EnumerableSet.Bytes32Set;\n    using EnumerableSet for EnumerableSet.AddressSet;\n\n    /**\n     * @notice Major Struct - Major Detail\n     *\n     * @dev majorURI The json URI of major detail\n     * @dev status The status of major (0: Normal 1: Abnormal)\n     * @dev subjects The subject contract address of major\n     */\n    struct Major {\n        string majorURI; uint256 status; EnumerableSet.AddressSet subjects;\n    }\n\n    /**\n     * @notice Subject Struct - Subject Detail\n     *\n     * @dev subjectURI The json URI of subject detail\n     * @dev status The status of subject (0: Normal 1: Abnormal)\n     */\n    struct Subject { string subjectURI; uint256 status; }\n\n    /** @notice Version of contract */\n    string constant public LASTEST_VERSION = \"v1.0.1\";\n\n    /** @notice The role of access control - (admin role) */\n    bytes32 constant public ADMIN_ROLE = keccak256(\"ADMIN_ROLE\");\n\n    /** @notice Subject contract template address - For add new subject contract */\n    address public subjectTemplate;\n\n    /**\n     * @notice Proxy Address List - (Upgradeable)\n     *\n     * @dev 0 - Address of token proxy contract - For subject mint token\n     * @dev 1 - Address of transfer proxy contract - For subject transfer token\n     * @dev 2 - Address of black list proxy contract - For subject black list\n     * @dev 3 - Address of fee receiver proxy contract - For subject transfer fee\n     * @dev 4 - Address of ticket lp token contract - For subject transfer ticket token\n     */\n    address[5] public proxys;\n\n    /** @notice Major's id list - For get major uri list */\n    EnumerableSet.Bytes32Set private _majorIds;\n\n    /** @notice The map of all major. See { MajorFactory - Major } */\n    mapping (bytes32 => Major) private _majors;\n\n    /** @notice The map of all subject. See { MajorFactory - Subject } */\n    mapping (address => Subject) private _subjects;\n\n    event OpenMajor(bytes32 majorId, address admin, uint256 blockNumber);\n    event ToggleMajorStatus(bytes32 majorId, address admin, uint256 status);\n    event AddSubjectForMajor(address subject, address admin, uint256 blockNumber);\n    event ToggleSubjectStatus(bytes32 majorId, address admin, address subject, uint256 status);\n\n\n    constructor(address tmpl, address[5] memory addrs) {\n        subjectTemplate = tmpl;\n        proxys = addrs;\n\n        _grantRole(ADMIN_ROLE, _msgSender());\n    }\n\n    /** @notice Get all major's json URIs */\n    function getMajors() public view returns (string[] memory majors) {\n        majors = new string[](_majorIds.length());\n\n        for (uint256 index = 0; index < majors.length; index++) {\n            bytes32 majorId = _majorIds.at(index);\n            if (_majors[majorId].status != 0) continue;\n\n            majors[index] = _majors[majorId].majorURI;\n        }\n    }\n\n    function getSubjects(bytes32 majorId) public view returns (string[] memory subjects) {\n        subjects = new string[](_majors[majorId].subjects.length());\n\n        for (uint256 index = 0; index < subjects.length; index++) {\n            address subject = _majors[majorId].subjects.at(index);\n            if (_subjects[subject].status != 0) continue;\n\n            subjects[index] = _subjects[subject].subjectURI;\n        }\n    }\n\n    function setSubjectTemplate(address templ) public {\n        require(hasRole(ADMIN_ROLE, _msgSender()), \"ONLY_ADMIN\");\n        subjectTemplate = templ;\n    }\n\n    function openMajor(string memory majorURI) public {\n        require(hasRole(ADMIN_ROLE, _msgSender()), \"ONLY_ADMIN\");\n        bytes32 majorId = keccak256(abi.encode(majorURI));\n        require(_majorIds.contains(majorId), \"OPENED\");\n\n        _majorIds.add(majorId);\n        _majors[majorId].majorURI = majorURI;\n\n        emit OpenMajor(majorId, _msgSender(), block.number);\n    }\n\n    function toggleMajorStatus(bytes32 majorId, uint256 status) public {\n        require(hasRole(ADMIN_ROLE, _msgSender()), \"ONLY_ADMIN\");\n        require(!_majorIds.contains(majorId), \"NOT_EXISTS\");\n\n        _majors[majorId].status = status;\n\n        emit ToggleMajorStatus(majorId, _msgSender(), status);\n    }\n\n    function addSubjectForMajor(bytes32 majorId, string memory subjectURI) public {\n        require(hasRole(ADMIN_ROLE, _msgSender()), \"ONLY_ADMIN\");\n        require(!_majorIds.contains(majorId), \"NOT_EXISTS\");\n\n        address newSubject = Clones.clone(subjectTemplate);\n        SubjectTemplate(newSubject).initialize(_msgSender(), proxys, subjectURI);\n\n        _majors[majorId].subjects.add(newSubject);\n        _subjects[newSubject].subjectURI = subjectURI;\n\n        // Grant mint role for subject contract\n        address token = TokenProxy(payable(proxys[0])).getImplementation();\n        KnowlageToken know = KnowlageToken(token);\n        know.grantRole(know.MINTER_ROLE(), newSubject);\n\n        emit AddSubjectForMajor(newSubject, _msgSender(), block.number);\n    }\n\n    function toggleSubjectStatus(bytes32 majorId, address subject, uint256 status) public {\n        require(hasRole(ADMIN_ROLE, _msgSender()), \"ONLY_ADMIN\");\n        require(!_majorIds.contains(majorId), \"MAJOR_NOT_EXISTS\");\n        require(!_majors[majorId].subjects.contains(subject), \"SUB_NOT_EXISTS\");\n\n        _subjects[subject].status = status;\n        \n        emit ToggleSubjectStatus(majorId, _msgSender(), subject, status);\n    }\n}",
  "sourcePath": "/Users/cea/Projects/myself/knowlage-dapp/contracts/know-core/MajorFactory.sol",
  "compiler": {
    "name": "solc",
    "version": "0.8.16+commit.07a7930e.Emscripten.clang"
  },
  "schemaVersion": "3.4.9",
  "updatedAt": "2022-12-13T17:38:38.832Z",
  "devdoc": {
    "details": "Version: v1.0.1",
    "kind": "dev",
    "methods": {
      "getRoleAdmin(bytes32)": {
        "details": "Returns the admin role that controls `role`. See {grantRole} and {revokeRole}. To change a role's admin, use {_setRoleAdmin}."
      },
      "grantRole(bytes32,address)": {
        "details": "Grants `role` to `account`. If `account` had not been already granted `role`, emits a {RoleGranted} event. Requirements: - the caller must have ``role``'s admin role. May emit a {RoleGranted} event."
      },
      "hasRole(bytes32,address)": {
        "details": "Returns `true` if `account` has been granted `role`."
      },
      "paused()": {
        "details": "Returns true if the contract is paused, and false otherwise."
      },
      "renounceRole(bytes32,address)": {
        "details": "Revokes `role` from the calling account. Roles are often managed via {grantRole} and {revokeRole}: this function's purpose is to provide a mechanism for accounts to lose their privileges if they are compromised (such as when a trusted device is misplaced). If the calling account had been revoked `role`, emits a {RoleRevoked} event. Requirements: - the caller must be `account`. May emit a {RoleRevoked} event."
      },
      "revokeRole(bytes32,address)": {
        "details": "Revokes `role` from `account`. If `account` had been granted `role`, emits a {RoleRevoked} event. Requirements: - the caller must have ``role``'s admin role. May emit a {RoleRevoked} event."
      },
      "supportsInterface(bytes4)": {
        "details": "See {IERC165-supportsInterface}."
      }
    },
    "stateVariables": {
      "proxys": {
        "details": "0 - Address of token proxy contract - For subject mint token1 - Address of transfer proxy contract - For subject transfer token2 - Address of black list proxy contract - For subject black list3 - Address of fee receiver proxy contract - For subject transfer fee4 - Address of ticket lp token contract - For subject transfer ticket token"
      }
    },
    "title": "Major Factory Contract",
    "version": 1
  },
  "userdoc": {
    "kind": "user",
    "methods": {
      "ADMIN_ROLE()": {
        "notice": "The role of access control - (admin role) "
      },
      "LASTEST_VERSION()": {
        "notice": "Version of contract "
      },
      "getMajors()": {
        "notice": "Get all major's json URIs "
      },
      "proxys(uint256)": {
        "notice": "Proxy Address List - (Upgradeable)"
      },
      "subjectTemplate()": {
        "notice": "Subject contract template address - For add new subject contract "
      }
    },
    "notice": "HorseRace is a NFT horse racing metaverse based on pylogon....Website: https://horse-racing.io/Docs: https://horse-racing.gitbook.io/horse-racing-docs/ ",
    "version": 1
  }
}