{
  "contractName": "SubjectTemplate",
  "abi": [
    {
      "anonymous": false,
      "inputs": [
        {
          "indexed": false,
          "internalType": "bytes32",
          "name": "subjectId",
          "type": "bytes32"
        },
        {
          "indexed": false,
          "internalType": "address",
          "name": "tuitionToken",
          "type": "address"
        },
        {
          "indexed": false,
          "internalType": "address",
          "name": "ticketToken",
          "type": "address"
        }
      ],
      "name": "AskNewSubject",
      "type": "event"
    },
    {
      "anonymous": false,
      "inputs": [
        {
          "indexed": false,
          "internalType": "address",
          "name": "ticketToken",
          "type": "address"
        },
        {
          "indexed": false,
          "internalType": "uint256",
          "name": "amount",
          "type": "uint256"
        },
        {
          "indexed": false,
          "internalType": "uint256",
          "name": "members",
          "type": "uint256"
        }
      ],
      "name": "ExitSubject",
      "type": "event"
    },
    {
      "anonymous": false,
      "inputs": [
        {
          "indexed": false,
          "internalType": "uint8",
          "name": "version",
          "type": "uint8"
        }
      ],
      "name": "Initialized",
      "type": "event"
    },
    {
      "anonymous": false,
      "inputs": [
        {
          "indexed": false,
          "internalType": "address",
          "name": "ticketToken",
          "type": "address"
        },
        {
          "indexed": false,
          "internalType": "uint256",
          "name": "members",
          "type": "uint256"
        },
        {
          "indexed": false,
          "internalType": "uint256",
          "name": "teachers",
          "type": "uint256"
        }
      ],
      "name": "JoinSubject",
      "type": "event"
    },
    {
      "anonymous": false,
      "inputs": [
        {
          "indexed": false,
          "internalType": "address",
          "name": "account",
          "type": "address"
        }
      ],
      "name": "Paused",
      "type": "event"
    },
    {
      "anonymous": false,
      "inputs": [
        {
          "indexed": true,
          "internalType": "bytes32",
          "name": "role",
          "type": "bytes32"
        },
        {
          "indexed": true,
          "internalType": "bytes32",
          "name": "previousAdminRole",
          "type": "bytes32"
        },
        {
          "indexed": true,
          "internalType": "bytes32",
          "name": "newAdminRole",
          "type": "bytes32"
        }
      ],
      "name": "RoleAdminChanged",
      "type": "event"
    },
    {
      "anonymous": false,
      "inputs": [
        {
          "indexed": true,
          "internalType": "bytes32",
          "name": "role",
          "type": "bytes32"
        },
        {
          "indexed": true,
          "internalType": "address",
          "name": "account",
          "type": "address"
        },
        {
          "indexed": true,
          "internalType": "address",
          "name": "sender",
          "type": "address"
        }
      ],
      "name": "RoleGranted",
      "type": "event"
    },
    {
      "anonymous": false,
      "inputs": [
        {
          "indexed": true,
          "internalType": "bytes32",
          "name": "role",
          "type": "bytes32"
        },
        {
          "indexed": true,
          "internalType": "address",
          "name": "account",
          "type": "address"
        },
        {
          "indexed": true,
          "internalType": "address",
          "name": "sender",
          "type": "address"
        }
      ],
      "name": "RoleRevoked",
      "type": "event"
    },
    {
      "anonymous": false,
      "inputs": [
        {
          "indexed": false,
          "internalType": "uint256",
          "name": "amount",
          "type": "uint256"
        },
        {
          "indexed": false,
          "internalType": "uint256",
          "name": "fee",
          "type": "uint256"
        },
        {
          "indexed": false,
          "internalType": "address",
          "name": "tuitionToken",
          "type": "address"
        }
      ],
      "name": "SwapReward",
      "type": "event"
    },
    {
      "anonymous": false,
      "inputs": [
        {
          "indexed": false,
          "internalType": "address",
          "name": "account",
          "type": "address"
        }
      ],
      "name": "Unpaused",
      "type": "event"
    },
    {
      "anonymous": false,
      "inputs": [
        {
          "indexed": false,
          "internalType": "uint256",
          "name": "members",
          "type": "uint256"
        },
        {
          "indexed": false,
          "internalType": "uint256",
          "name": "coursewareURIs",
          "type": "uint256"
        }
      ],
      "name": "UploadCourseware",
      "type": "event"
    },
    {
      "anonymous": false,
      "inputs": [
        {
          "indexed": false,
          "internalType": "uint256",
          "name": "leftTickets",
          "type": "uint256"
        },
        {
          "indexed": false,
          "internalType": "uint256",
          "name": "knowAmount",
          "type": "uint256"
        }
      ],
      "name": "VoteTo",
      "type": "event"
    },
    {
      "inputs": [],
      "name": "ADMIN_ROLE",
      "outputs": [
        {
          "internalType": "bytes32",
          "name": "",
          "type": "bytes32"
        }
      ],
      "stateMutability": "view",
      "type": "function"
    },
    {
      "inputs": [],
      "name": "DEFAULT_ADMIN_ROLE",
      "outputs": [
        {
          "internalType": "bytes32",
          "name": "",
          "type": "bytes32"
        }
      ],
      "stateMutability": "view",
      "type": "function"
    },
    {
      "inputs": [],
      "name": "LASTEST_VERSION",
      "outputs": [
        {
          "internalType": "string",
          "name": "",
          "type": "string"
        }
      ],
      "stateMutability": "view",
      "type": "function"
    },
    {
      "inputs": [],
      "name": "blackListProxy",
      "outputs": [
        {
          "internalType": "contract BalckListProxy",
          "name": "",
          "type": "address"
        }
      ],
      "stateMutability": "view",
      "type": "function"
    },
    {
      "inputs": [
        {
          "internalType": "bytes32",
          "name": "role",
          "type": "bytes32"
        }
      ],
      "name": "getRoleAdmin",
      "outputs": [
        {
          "internalType": "bytes32",
          "name": "",
          "type": "bytes32"
        }
      ],
      "stateMutability": "view",
      "type": "function"
    },
    {
      "inputs": [
        {
          "internalType": "bytes32",
          "name": "role",
          "type": "bytes32"
        },
        {
          "internalType": "address",
          "name": "account",
          "type": "address"
        }
      ],
      "name": "grantRole",
      "outputs": [],
      "stateMutability": "nonpayable",
      "type": "function"
    },
    {
      "inputs": [
        {
          "internalType": "bytes32",
          "name": "role",
          "type": "bytes32"
        },
        {
          "internalType": "address",
          "name": "account",
          "type": "address"
        }
      ],
      "name": "hasRole",
      "outputs": [
        {
          "internalType": "bool",
          "name": "",
          "type": "bool"
        }
      ],
      "stateMutability": "view",
      "type": "function"
    },
    {
      "inputs": [],
      "name": "paused",
      "outputs": [
        {
          "internalType": "bool",
          "name": "",
          "type": "bool"
        }
      ],
      "stateMutability": "view",
      "type": "function"
    },
    {
      "inputs": [],
      "name": "receiveFeeProxy",
      "outputs": [
        {
          "internalType": "contract ReceiveFeeProxy",
          "name": "",
          "type": "address"
        }
      ],
      "stateMutability": "view",
      "type": "function"
    },
    {
      "inputs": [
        {
          "internalType": "bytes32",
          "name": "role",
          "type": "bytes32"
        },
        {
          "internalType": "address",
          "name": "account",
          "type": "address"
        }
      ],
      "name": "renounceRole",
      "outputs": [],
      "stateMutability": "nonpayable",
      "type": "function"
    },
    {
      "inputs": [
        {
          "internalType": "bytes32",
          "name": "role",
          "type": "bytes32"
        },
        {
          "internalType": "address",
          "name": "account",
          "type": "address"
        }
      ],
      "name": "revokeRole",
      "outputs": [],
      "stateMutability": "nonpayable",
      "type": "function"
    },
    {
      "inputs": [],
      "name": "subjectURI",
      "outputs": [
        {
          "internalType": "string",
          "name": "",
          "type": "string"
        }
      ],
      "stateMutability": "view",
      "type": "function"
    },
    {
      "inputs": [
        {
          "internalType": "bytes4",
          "name": "interfaceId",
          "type": "bytes4"
        }
      ],
      "name": "supportsInterface",
      "outputs": [
        {
          "internalType": "bool",
          "name": "",
          "type": "bool"
        }
      ],
      "stateMutability": "view",
      "type": "function"
    },
    {
      "inputs": [],
      "name": "ticketERC20Template",
      "outputs": [
        {
          "internalType": "address",
          "name": "",
          "type": "address"
        }
      ],
      "stateMutability": "view",
      "type": "function"
    },
    {
      "inputs": [],
      "name": "tokenProxy",
      "outputs": [
        {
          "internalType": "contract TokenProxy",
          "name": "",
          "type": "address"
        }
      ],
      "stateMutability": "view",
      "type": "function"
    },
    {
      "inputs": [],
      "name": "transferProxy",
      "outputs": [
        {
          "internalType": "contract TransferProxy",
          "name": "",
          "type": "address"
        }
      ],
      "stateMutability": "view",
      "type": "function"
    },
    {
      "inputs": [
        {
          "internalType": "address",
          "name": "admin",
          "type": "address"
        },
        {
          "internalType": "address[5]",
          "name": "proxys",
          "type": "address[5]"
        },
        {
          "internalType": "string",
          "name": "_subjectURI",
          "type": "string"
        }
      ],
      "name": "initialize",
      "outputs": [],
      "stateMutability": "nonpayable",
      "type": "function"
    },
    {
      "inputs": [
        {
          "internalType": "bytes32",
          "name": "subjectId",
          "type": "bytes32"
        }
      ],
      "name": "getSubjectDetail",
      "outputs": [
        {
          "internalType": "string",
          "name": "uri",
          "type": "string"
        },
        {
          "internalType": "address[3]",
          "name": "addrs",
          "type": "address[3]"
        },
        {
          "internalType": "uint256[6]",
          "name": "settings",
          "type": "uint256[6]"
        },
        {
          "internalType": "address[]",
          "name": "members",
          "type": "address[]"
        },
        {
          "internalType": "address[]",
          "name": "teachers",
          "type": "address[]"
        }
      ],
      "stateMutability": "view",
      "type": "function"
    },
    {
      "inputs": [
        {
          "internalType": "bytes32",
          "name": "subjectId",
          "type": "bytes32"
        },
        {
          "internalType": "address",
          "name": "teacher",
          "type": "address"
        }
      ],
      "name": "getSubjectCourseware",
      "outputs": [
        {
          "internalType": "string",
          "name": "uri",
          "type": "string"
        },
        {
          "internalType": "bytes32[]",
          "name": "free",
          "type": "bytes32[]"
        },
        {
          "internalType": "bytes32[]",
          "name": "other",
          "type": "bytes32[]"
        }
      ],
      "stateMutability": "view",
      "type": "function"
    },
    {
      "inputs": [
        {
          "internalType": "bool",
          "name": "status",
          "type": "bool"
        }
      ],
      "name": "togglePause",
      "outputs": [],
      "stateMutability": "nonpayable",
      "type": "function"
    },
    {
      "inputs": [
        {
          "internalType": "address",
          "name": "tuitionToken",
          "type": "address"
        },
        {
          "internalType": "uint256[5]",
          "name": "parms",
          "type": "uint256[5]"
        },
        {
          "internalType": "string",
          "name": "descriptionURI",
          "type": "string"
        }
      ],
      "name": "askNewSubject",
      "outputs": [],
      "stateMutability": "payable",
      "type": "function"
    },
    {
      "inputs": [
        {
          "internalType": "bytes32",
          "name": "subjectId",
          "type": "bytes32"
        },
        {
          "internalType": "uint256",
          "name": "shares",
          "type": "uint256"
        }
      ],
      "name": "joinSubject",
      "outputs": [],
      "stateMutability": "payable",
      "type": "function"
    },
    {
      "inputs": [
        {
          "internalType": "bytes32",
          "name": "subjectId",
          "type": "bytes32"
        }
      ],
      "name": "exitSubject",
      "outputs": [],
      "stateMutability": "payable",
      "type": "function"
    },
    {
      "inputs": [
        {
          "internalType": "bytes32",
          "name": "subjectId",
          "type": "bytes32"
        },
        {
          "internalType": "string",
          "name": "descriptionURI",
          "type": "string"
        },
        {
          "internalType": "bytes32[]",
          "name": "freeCoursewareURIs",
          "type": "bytes32[]"
        },
        {
          "internalType": "bytes32[]",
          "name": "otherCoursewareURIs",
          "type": "bytes32[]"
        },
        {
          "internalType": "bool",
          "name": "isFreeWhenEnd",
          "type": "bool"
        }
      ],
      "name": "uploadCourseware",
      "outputs": [],
      "stateMutability": "nonpayable",
      "type": "function"
    },
    {
      "inputs": [
        {
          "internalType": "bytes32",
          "name": "subjectId",
          "type": "bytes32"
        },
        {
          "internalType": "address",
          "name": "teacher",
          "type": "address"
        },
        {
          "internalType": "uint256",
          "name": "ticket",
          "type": "uint256"
        }
      ],
      "name": "voteTo",
      "outputs": [],
      "stateMutability": "nonpayable",
      "type": "function"
    },
    {
      "inputs": [
        {
          "internalType": "bytes32",
          "name": "subjectId",
          "type": "bytes32"
        },
        {
          "internalType": "uint256",
          "name": "amount",
          "type": "uint256"
        }
      ],
      "name": "swapReward",
      "outputs": [],
      "stateMutability": "nonpayable",
      "type": "function"
    }
  ],
  "bytecode": "0x608060405234801561001057600080fd5b506002805460ff191690556138458061002a6000396000f3fe6080604052600436106101815760003560e01c80635c975abb116100d157806391d148541161008a578063be0742cb11610064578063be0742cb14610498578063d547741f146104b8578063d7eb79f4146104d8578063fda0b9381461050757600080fd5b806391d1485414610443578063a217fddf14610463578063b03499b01461047857600080fd5b80635c975abb1461036e5780636e667db314610386578063747f02d0146103a657806375b238fc146103b95780637b811680146103ed5780637f11d33f1461041e57600080fd5b8063248a9ca31161013e57806341e0c7d41161011857806341e0c7d4146102e9578063423ab4851461031b5780634f7304701461033b57806357d159c61461034e57600080fd5b8063248a9ca31461026a5780632f2ff15d146102a957806336568abe146102c957600080fd5b806301ffc9a714610186578063105b2ba2146101bb57806311c2e128146101f357806311d7aa8a1461020857806319596cd514610228578063225118ba14610248575b600080fd5b34801561019257600080fd5b506101a66101a1366004612e9a565b610527565b60405190151581526020015b60405180910390f35b3480156101c757600080fd5b506006546101db906001600160a01b031681565b6040516001600160a01b0390911681526020016101b2565b610206610201366004612ec4565b61055e565b005b34801561021457600080fd5b506005546101db906001600160a01b031681565b34801561023457600080fd5b506004546101db906001600160a01b031681565b34801561025457600080fd5b5061025d6109b7565b6040516101b29190612f36565b34801561027657600080fd5b5061029b610285366004612f49565b6000908152600160208190526040909120015490565b6040519081526020016101b2565b3480156102b557600080fd5b506102066102c4366004612f77565b610a45565b3480156102d557600080fd5b506102066102e4366004612f77565b610a70565b3480156102f557600080fd5b5061025d6040518060400160405280600681526020016576312e302e3160d01b81525081565b34801561032757600080fd5b50610206610336366004612fa7565b610aee565b6102066103493660046130bf565b610f45565b34801561035a57600080fd5b50610206610369366004613168565b6113de565b34801561037a57600080fd5b5060025460ff166101a6565b34801561039257600080fd5b506003546101db906001600160a01b031681565b6102066103b4366004612f49565b61141e565b3480156103c557600080fd5b5061029b7fa49807205ce4d355092ef5a8a18f56e8913cf4a201fbe287825b095693c2177581565b3480156103f957600080fd5b5061040d610408366004612f49565b611721565b6040516101b29594939291906131c9565b34801561042a57600080fd5b506002546101db9061010090046001600160a01b031681565b34801561044f57600080fd5b506101a661045e366004612f77565b6119d1565b34801561046f57600080fd5b5061029b600081565b34801561048457600080fd5b50610206610493366004612ec4565b6119fc565b3480156104a457600080fd5b506102066104b33660046132ee565b611e18565b3480156104c457600080fd5b506102066104d3366004612f77565b612112565b3480156104e457600080fd5b506104f86104f3366004612f77565b612138565b6040516101b2939291906133c5565b34801561051357600080fd5b50610206610522366004613408565b6123b6565b60006001600160e01b03198216637965db0b60e01b148061055857506301ffc9a760e01b6001600160e01b03198316145b92915050565b6000600460009054906101000a90046001600160a01b03166001600160a01b031663aaf10f426040518163ffffffff1660e01b8152600401602060405180830381865afa1580156105b3573d6000803e3d6000fd5b505050506040513d601f19601f820116820180604052508101906105d79190613479565b90506001600160a01b03811663b36d6919336040516001600160e01b031960e084901b1681526001600160a01b039091166004820152602401602060405180830381865afa15801561062d573d6000803e3d6000fd5b505050506040513d601f19601f820116820180604052508101906106519190613496565b156106775760405162461bcd60e51b815260040161066e906134b3565b60405180910390fd5b60025460ff161561069a5760405162461bcd60e51b815260040161066e906134d7565b600082116106db5760405162461bcd60e51b815260206004820152600e60248201526d494e56414c49445f53484152455360901b604482015260640161066e565b6106e6600884612545565b6107025760405162461bcd60e51b815260040161066e906134f7565b6000838152600a6020526040902060038101541580610728575080600301548160040154105b61075d5760405162461bcd60e51b815260040161066e906020808252600490820152631195531360e21b604082015260600190565b6005810154156108d35760058101546000846107795781610783565b6107838286612560565b835490915061079e906001600160a01b0316335b308461256c565b6107db5760405162461bcd60e51b815260206004820152600e60248201526d1514905394d1915497d19052531160921b604482015260640161066e565b60018301546001600160a01b0316156108775760018301546001600160a01b03168063a9059cbb336040516001600160e01b031960e084901b1681526001600160a01b039091166004820152602481018590526044016020604051808303816000875af1158015610850573d6000803e3d6000fd5b505050506040513d601f19601f820116820180604052508101906108749190613496565b50505b6004830154610886908661264e565b60048401556000868152600a60209081526040808320338452600f019091528120546108b2908361264e565b6000888152600a60209081526040808320338452600f019091529020555050505b6108e0600a82013361265a565b50336000908152600e820160205260409020546108fe90849061264e565b336000818152600e84016020526040812083905591945061093f918691600c91905b6001600160a01b0316815260208101919091526040016000209061266f565b5060018101547f69b95071146e8e4f0782a283e5409a82fe6577e70e17bbb38355383b021306fb906001600160a01b031661097c600a840161267b565b61098884600c0161267b565b604080516001600160a01b0390941684526020840192909252908201526060015b60405180910390a150505050565b600780546109c49061351b565b80601f01602080910402602001604051908101604052809291908181526020018280546109f09061351b565b8015610a3d5780601f10610a1257610100808354040283529160200191610a3d565b820191906000526020600020905b815481529060010190602001808311610a2057829003601f168201915b505050505081565b60008281526001602081905260409091200154610a6181612685565b610a6b8383612692565b505050565b6001600160a01b0381163314610ae05760405162461bcd60e51b815260206004820152602f60248201527f416363657373436f6e74726f6c3a2063616e206f6e6c792072656e6f756e636560448201526e103937b632b9903337b91039b2b63360891b606482015260840161066e565b610aea82826126fd565b5050565b6000600460009054906101000a90046001600160a01b03166001600160a01b031663aaf10f426040518163ffffffff1660e01b8152600401602060405180830381865afa158015610b43573d6000803e3d6000fd5b505050506040513d601f19601f82011682018060405250810190610b679190613479565b90506001600160a01b03811663b36d6919336040516001600160e01b031960e084901b1681526001600160a01b039091166004820152602401602060405180830381865afa158015610bbd573d6000803e3d6000fd5b505050506040513d601f19601f82011682018060405250810190610be19190613496565b15610bfe5760405162461bcd60e51b815260040161066e906134b3565b60025460ff1615610c215760405162461bcd60e51b815260040161066e906134d7565b610c2c600885612545565b610c485760405162461bcd60e51b815260040161066e906134f7565b6000848152600a60205260409020610c65335b600a830190612764565b610c9c5760405162461bcd60e51b81526020600482015260086024820152672727aa2fa527a4a760c11b604482015260640161066e565b336000908152600f82016020526040902054610ce85760405162461bcd60e51b815260206004820152600b60248201526a151250d2d15514d7d3d55560aa1b604482015260640161066e565b336000908152600f820160205260409020546001600160a01b038516158015610d0f575083155b15610e08576000610d2283600c0161267b565b9050610d3a81610d3484612710612560565b90612786565b915060005b81811015610d8157610d54600c850182612792565b8454909750610d6e906001600160a01b031633898661256c565b5080610d798161356b565b915050610d3f565b50336000818152600f85016020526040902054610d9e919061279e565b336000908152600f8401602052604081208190557f2facdae94aa92b3c39fb9c489bcfac242d193416fbbd614ce9bf4ed19a7f440a90610dea83610de486612710612786565b90612560565b6040805192835260208301919091520160405180910390a150610f3d565b610e15600c830186612764565b610e565760405162461bcd60e51b8152602060048201526012602482015271544541434845525f4e4f545f45584953545360701b604482015260640161066e565b600084118015610e665750808411155b610ea45760405162461bcd60e51b815260206004820152600f60248201526e494e56414c49445f5449434b45545360881b604482015260640161066e565b8154610ec6906001600160a01b03163387610ec188612710612560565b61256c565b50610ed1338561279e565b336000908152600f83016020526040902054610eee908290613584565b336000908152600f840160209081526040918290208390558151928352820186905280517f2facdae94aa92b3c39fb9c489bcfac242d193416fbbd614ce9bf4ed19a7f440a9281900390910190a15b505050505050565b6000600460009054906101000a90046001600160a01b03166001600160a01b031663aaf10f426040518163ffffffff1660e01b8152600401602060405180830381865afa158015610f9a573d6000803e3d6000fd5b505050506040513d601f19601f82011682018060405250810190610fbe9190613479565b90506001600160a01b03811663b36d6919336040516001600160e01b031960e084901b1681526001600160a01b039091166004820152602401602060405180830381865afa158015611014573d6000803e3d6000fd5b505050506040513d601f19601f820116820180604052508101906110389190613496565b156110555760405162461bcd60e51b815260040161066e906134b3565b60025460ff16156110785760405162461bcd60e51b815260040161066e906134d7565b60808301516110ba5760405162461bcd60e51b815260206004820152600e60248201526d494e56414c49445f53484152455360901b604482015260640161066e565b600084836040516020016110cf9291906135ad565b60408051808303601f1901815291815281516020928301206000818152600a8085529083902080546001600160a01b03199081166001600160a01b038c16178255600282018054339216821790558951600383015560808a01516004830155948901516005820155928801516006840155606088015160078401559093506111599291019061265a565b5060808401516000828152600a60209081526040808320338452600e018252909120919091558401511561134e57608084015160009061119d5760208501516111b0565b608085015160208601516111b091612560565b90506111bc8633610797565b6111f95760405162461bcd60e51b815260206004820152600e60248201526d1514905394d1915497d19052531160921b604482015260640161066e565b60065461120e906001600160a01b0316612882565b6000838152600a60205260409081902060010180546001600160a01b0319166001600160a01b039390931692831790555163cd6dc68760e01b81523060048201526a52b7d2dcc80cd2e40000006024820152819063cd6dc68790604401600060405180830381600087803b15801561128557600080fd5b505af1158015611299573d6000803e3d6000fd5b50505050806001600160a01b031663a9059cbb6112b33390565b6112bf85612710612560565b6040516001600160e01b031960e085901b1681526001600160a01b03909216600483015260248201526044016020604051808303816000875af115801561130a573d6000803e3d6000fd5b505050506040513d601f19601f8201168201806040525081019061132e9190613496565b50506000828152600a60209081526040808320338452600f019091529020555b61135c81600b600033610920565b5061136b81600c600033610920565b5061137760088261266f565b506000818152600a60209081526040918290206001015482518481526001600160a01b038981169382019390935291168183015290517ff86dd263da3cbcb66b765236602805adf7b32c5486bb8be8bc6985402f170ca79181900360600190a15050505050565b7fa49807205ce4d355092ef5a8a18f56e8913cf4a201fbe287825b095693c2177561140881612685565b811561141657610aea61291c565b610aea612976565b6000600460009054906101000a90046001600160a01b03166001600160a01b031663aaf10f426040518163ffffffff1660e01b8152600401602060405180830381865afa158015611473573d6000803e3d6000fd5b505050506040513d601f19601f820116820180604052508101906114979190613479565b90506001600160a01b03811663b36d6919336040516001600160e01b031960e084901b1681526001600160a01b039091166004820152602401602060405180830381865afa1580156114ed573d6000803e3d6000fd5b505050506040513d601f19601f820116820180604052508101906115119190613496565b1561152e5760405162461bcd60e51b815260040161066e906134b3565b60025460ff16156115515760405162461bcd60e51b815260040161066e906134d7565b61155c600883612545565b6115785760405162461bcd60e51b815260040161066e906134f7565b6000828152600a6020526040812061158f33610c5b565b6115c65760405162461bcd60e51b81526020600482015260086024820152672727aa2fa527a4a760c11b604482015260640161066e565b60058101541561168557611605816005015482600e0160006115e53390565b6001600160a01b0316815260208101919091526040016000205490612560565b6001820154909250611628906001600160a01b03163330610ec186612710612560565b6116655760405162461bcd60e51b815260206004820152600e60248201526d1253959053125117d51250d2d15560921b604482015260640161066e565b805461167c906001600160a01b031630338561256c565b61168557600080fd5b611692600a8201336129af565b50336000908152600c602052604090206116ac90856129c4565b50336000908152600e8201602052604090205460048201546116cd916129d0565b6004820155336000908152600e8201602052604081205560018101547f1ed432da3a887c0ce4a2225ec6121096dfbddca6f79c7a58c5ab5b2f800ed2fa906001600160a01b031683610988600a850161267b565b606061172b612de0565b611733612dfe565b6000848152600a60205260409020600901805460609182916117549061351b565b80601f01602080910402602001604051908101604052809291908181526020018280546117809061351b565b80156117cd5780601f106117a2576101008083540402835291602001916117cd565b820191906000526020600020905b8154815290600101906020018083116117b057829003601f168201915b5050506000898152600a6020818152604080842080546001600160a01b039081168d52600182015481168d8501526002820154168c83015260038101548b5260048101548b8401526005810154918b0191909152600681015460608b0152600781015460808b0152600881015460a08b01528c8452908290529499509093611858935001905061267b565b90508067ffffffffffffffff81111561187357611873612fdf565b60405190808252806020026020018201604052801561189c578160200160208202803683370190505b50925060005b81811015611902576000888152600a602081905260409091206118c6910182612792565b8482815181106118d8576118d8613597565b6001600160a01b0390921660209283029190910190910152806118fa8161356b565b9150506118a2565b506000878152600a6020526040902061191d90600c0161267b565b90508067ffffffffffffffff81111561193857611938612fdf565b604051908082528060200260200182016040528015611961578160200160208202803683370190505b50915060005b818110156119c6576000888152600a6020526040902061198a90600c0182612792565b83828151811061199c5761199c613597565b6001600160a01b0390921660209283029190910190910152806119be8161356b565b915050611967565b505091939590929450565b60009182526001602090815260408084206001600160a01b0393909316845291905290205460ff1690565b6000600460009054906101000a90046001600160a01b03166001600160a01b031663aaf10f426040518163ffffffff1660e01b8152600401602060405180830381865afa158015611a51573d6000803e3d6000fd5b505050506040513d601f19601f82011682018060405250810190611a759190613479565b90506001600160a01b03811663b36d6919336040516001600160e01b031960e084901b1681526001600160a01b039091166004820152602401602060405180830381865afa158015611acb573d6000803e3d6000fd5b505050506040513d601f19601f82011682018060405250810190611aef9190613496565b15611b0c5760405162461bcd60e51b815260040161066e906134b3565b60025460ff1615611b2f5760405162461bcd60e51b815260040161066e906134d7565b611b3a600884612545565b611b565760405162461bcd60e51b815260040161066e906134f7565b6000838152600a6020526040902060068101544210611ba15760405162461bcd60e51b81526020600482015260076024820152661393d517d1539160ca1b604482015260640161066e565b611bae600c820133612764565b611bef5760405162461bcd60e51b8152602060048201526012602482015271544541434845525f4e4f545f45584953545360701b604482015260640161066e565b60008311611c305760405162461bcd60e51b815260206004820152600e60248201526d1253959053125117d05353d5539560921b604482015260640161066e565b6001810154611c50906001600160a01b03163330610ec187612710612560565b611c8d5760405162461bcd60e51b815260206004820152600e60248201526d1253959053125117d51250d2d15560921b604482015260640161066e565b6005546040805163557887a160e11b815290516000926001600160a01b03169163aaf10f429160048083019260209291908290030181865afa158015611cd7573d6000803e3d6000fd5b505050506040513d601f19601f82011682018060405250810190611cfb9190613479565b9050600080826001600160a01b03166398aca9226040518163ffffffff1660e01b81526004016040805180830381865afa158015611d3d573d6000803e3d6000fd5b505050506040513d601f19601f82011682018060405250810190611d6191906135e5565b90925090506000611d7882610d3489612710612560565b8554909150611d96906001600160a01b03163033610ec18b866129d0565b508454611dae906001600160a01b031630858461256c565b50611db9338861279e565b7fd1512bc414025eba1e89821afbb4a0c7eb82feedddf362500cb6e0517ae71a35611de488836129d0565b865460408051928352602083018590526001600160a01b039091169082015260600160405180910390a15050505050505050565b6000600460009054906101000a90046001600160a01b03166001600160a01b031663aaf10f426040518163ffffffff1660e01b8152600401602060405180830381865afa158015611e6d573d6000803e3d6000fd5b505050506040513d601f19601f82011682018060405250810190611e919190613479565b90506001600160a01b03811663b36d6919336040516001600160e01b031960e084901b1681526001600160a01b039091166004820152602401602060405180830381865afa158015611ee7573d6000803e3d6000fd5b505050506040513d601f19601f82011682018060405250810190611f0b9190613496565b15611f285760405162461bcd60e51b815260040161066e906134b3565b60025460ff1615611f4b5760405162461bcd60e51b815260040161066e906134d7565b611f56600887612545565b611f725760405162461bcd60e51b815260040161066e906134f7565b336000908152600d60205260409020611f8b9087612545565b15611fe5576000868152600e602090815260408083203384529091528120611fb891600190910190612e1c565b6000868152600e602090815260408083203384529091528120611fe091600290910190612e1c565b612035565b611ff386600d600033610920565b5061200f336000888152600a60205260409020600c019061265a565b506000868152600e6020908152604080832033845290915290206120338682613659565b505b6000868152600e60209081526040808320338452825290912060058101805460ff1916851515179055855161207292600190920191870190612e3a565b506000868152600e60209081526040808320338452825290912084516120a092600290920191860190612e3a565b506000835185516120b19190613719565b90507f0ae69ab16381c95d20f2f4bde4d6a0484d4f18e6a3148d455f3444a0e6fe78dc6120f2600a60008a8152602001908152602001600020600a0161267b565b60408051918252602082018490520160405180910390a150505050505050565b6000828152600160208190526040909120015461212e81612685565b610a6b83836126fd565b6000828152600e602090815260408083206001600160a01b038516845290915290208054606091829182919061216d9061351b565b80601f01602080910402602001604051908101604052809291908181526020018280546121999061351b565b80156121e65780601f106121bb576101008083540402835291602001916121e6565b820191906000526020600020905b8154815290600101906020018083116121c957829003601f168201915b5050506000888152600e602090815260408083206001600160a01b038b1684528252918290206001018054835181840281018401909452808452959850919491935090915083018282801561225a57602002820191906000526020600020905b815481526020019060010190808311612246575b5050506000888152600a6020526040902060060154929450505042101561231e576000858152600e602090815260408083206001600160a01b038816845290915290206005015460ff1615612319576000858152600e602090815260408083206001600160a01b03881684528252918290206002018054835181840281018401909452808452909183018282801561231157602002820191906000526020600020905b8154815260200190600101908083116122fd575b505050505090505b6123af565b61233a336000878152600a602081905260409091200190612764565b156123af576000858152600e602090815260408083206001600160a01b0388168452825291829020600201805483518184028101840190945280845290918301828280156123a757602002820191906000526020600020905b815481526020019060010190808311612393575b505050505090505b9250925092565b600054610100900460ff16158080156123d65750600054600160ff909116105b806123f05750303b1580156123f0575060005460ff166001145b6124535760405162461bcd60e51b815260206004820152602e60248201527f496e697469616c697a61626c653a20636f6e747261637420697320616c72656160448201526d191e481a5b9a5d1a585b1a5e995960921b606482015260840161066e565b6000805460ff191660011790558015612476576000805461ff0019166101001790555b6124a07fa49807205ce4d355092ef5a8a18f56e8913cf4a201fbe287825b095693c2177585612692565b60076124ac8382613659565b50825160028054610100600160a81b0319166101006001600160a01b03938416021790556020840151600380549183166001600160a01b0319928316179055604085015160048054919093169116179055801561253f576000805461ff0019169055604051600181527f7f26b83ff96e1f2b6a682f133852f6798a09c465da95921460cefb3847402498906020016109a9565b50505050565b600081815260018301602052604081205415155b9392505050565b6000612559828461372c565b60006001600160a01b0385166125bc576040516001600160a01b0385169083156108fc029084906000818181858888f193505050501580156125b2573d6000803e3d6000fd5b5060019050612646565b600354604051630aed65f560e11b81526001600160a01b0387811660048301528681166024830152858116604483015260648201859052909116906315dacbea906084016020604051808303816000875af115801561261f573d6000803e3d6000fd5b505050506040513d601f19601f820116820180604052508101906126439190613496565b90505b949350505050565b60006125598284613719565b6000612559836001600160a01b0384166129dc565b600061255983836129dc565b6000610558825490565b61268f8133612a2b565b50565b61269c82826119d1565b610aea5760008281526001602081815260408084206001600160a01b0386168086529252808420805460ff19169093179092559051339285917f2f8788117e7eff1d82e926ec794901d17c78024a50270940304540a733656f0d9190a45050565b61270782826119d1565b15610aea5760008281526001602090815260408083206001600160a01b0385168085529252808320805460ff1916905551339285917ff6391f5c32d9c69d2a47ea670b442974b53935d1edc7fd64eb21e047a839171b9190a45050565b6001600160a01b03811660009081526001830160205260408120541515612559565b6000612559828461374b565b60006125598383612a84565b6000600260019054906101000a90046001600160a01b03166001600160a01b031663aaf10f426040518163ffffffff1660e01b8152600401602060405180830381865afa1580156127f3573d6000803e3d6000fd5b505050506040513d601f19601f820116820180604052508101906128179190613479565b6040516308934a5f60e31b81526001600160a01b038581166004830152602482018590529192509082169063449a52f890604401600060405180830381600087803b15801561286557600080fd5b505af1158015612879573d6000803e3d6000fd5b50505050505050565b6000763d602d80600a3d3981f3363d3d373d3d3d363d730000008260601b60e81c176000526e5af43d82803e903d91602b57fd5bf38260781b17602052603760096000f090506001600160a01b0381166129175760405162461bcd60e51b8152602060048201526016602482015275115490cc4c4d8dce8818dc99585d194819985a5b195960521b604482015260640161066e565b919050565b612924612aae565b6002805460ff191660011790557f62e78cea01bee320cd4e420270b5ea74000d11b0c9f74754ebdbfc544b05a2586129593390565b6040516001600160a01b03909116815260200160405180910390a1565b61297e612af6565b6002805460ff191690557f5db9ee0a495bf2e6ff9c91a7834c1ba4fdd244a5e8aa4e537bd38aeae4b073aa33612959565b6000612559836001600160a01b038416612b3f565b60006125598383612b3f565b60006125598284613584565b6000818152600183016020526040812054612a2357508154600181810184556000848152602080822090930184905584548482528286019093526040902091909155610558565b506000610558565b612a3582826119d1565b610aea57612a4281612c32565b612a4d836020612c44565b604051602001612a5e92919061376d565b60408051601f198184030181529082905262461bcd60e51b825261066e91600401612f36565b6000826000018281548110612a9b57612a9b613597565b9060005260206000200154905092915050565b60025460ff1615612af45760405162461bcd60e51b815260206004820152601060248201526f14185d5cd8589b194e881c185d5cd95960821b604482015260640161066e565b565b60025460ff16612af45760405162461bcd60e51b815260206004820152601460248201527314185d5cd8589b194e881b9bdd081c185d5cd95960621b604482015260640161066e565b60008181526001830160205260408120548015612c28576000612b63600183613584565b8554909150600090612b7790600190613584565b9050818114612bdc576000866000018281548110612b9757612b97613597565b9060005260206000200154905080876000018481548110612bba57612bba613597565b6000918252602080832090910192909255918252600188019052604090208390555b8554869080612bed57612bed6137e2565b600190038181906000526020600020016000905590558560010160008681526020019081526020016000206000905560019350505050610558565b6000915050610558565b60606105586001600160a01b03831660145b60606000612c5383600261372c565b612c5e906002613719565b67ffffffffffffffff811115612c7657612c76612fdf565b6040519080825280601f01601f191660200182016040528015612ca0576020820181803683370190505b509050600360fc1b81600081518110612cbb57612cbb613597565b60200101906001600160f81b031916908160001a905350600f60fb1b81600181518110612cea57612cea613597565b60200101906001600160f81b031916908160001a9053506000612d0e84600261372c565b612d19906001613719565b90505b6001811115612d91576f181899199a1a9b1b9c1cb0b131b232b360811b85600f1660108110612d4d57612d4d613597565b1a60f81b828281518110612d6357612d63613597565b60200101906001600160f81b031916908160001a90535060049490941c93612d8a816137f8565b9050612d1c565b5083156125595760405162461bcd60e51b815260206004820181905260248201527f537472696e67733a20686578206c656e67746820696e73756666696369656e74604482015260640161066e565b60405180606001604052806003906020820280368337509192915050565b6040518060c001604052806006906020820280368337509192915050565b508054600082559060005260206000209081019061268f9190612e85565b828054828255906000526020600020908101928215612e75579160200282015b82811115612e75578251825591602001919060010190612e5a565b50612e81929150612e85565b5090565b5b80821115612e815760008155600101612e86565b600060208284031215612eac57600080fd5b81356001600160e01b03198116811461255957600080fd5b60008060408385031215612ed757600080fd5b50508035926020909101359150565b60005b83811015612f01578181015183820152602001612ee9565b50506000910152565b60008151808452612f22816020860160208601612ee6565b601f01601f19169290920160200192915050565b6020815260006125596020830184612f0a565b600060208284031215612f5b57600080fd5b5035919050565b6001600160a01b038116811461268f57600080fd5b60008060408385031215612f8a57600080fd5b823591506020830135612f9c81612f62565b809150509250929050565b600080600060608486031215612fbc57600080fd5b833592506020840135612fce81612f62565b929592945050506040919091013590565b634e487b7160e01b600052604160045260246000fd5b60405160a0810167ffffffffffffffff8111828210171561301857613018612fdf565b60405290565b604051601f8201601f1916810167ffffffffffffffff8111828210171561304757613047612fdf565b604052919050565b600082601f83011261306057600080fd5b813567ffffffffffffffff81111561307a5761307a612fdf565b61308d601f8201601f191660200161301e565b8181528460208386010111156130a257600080fd5b816020850160208301376000918101602001919091529392505050565b600080600060e084860312156130d457600080fd5b83356130df81612f62565b92506020603f850186136130f257600080fd5b6130fa612ff5565b8060c087018881111561310c57600080fd5b8388015b818110156131275780358452928401928401613110565b509094503591505067ffffffffffffffff81111561314457600080fd5b6131508682870161304f565b9150509250925092565b801515811461268f57600080fd5b60006020828403121561317a57600080fd5b81356125598161315a565b600081518084526020808501945080840160005b838110156131be5781516001600160a01b031687529582019590820190600101613199565b509495945050505050565b60006101808083526131dd81840189612f0a565b905060208084018860005b600381101561320e5781516001600160a01b0316835291830191908301906001016131e8565b505050608084018760005b600681101561323657815183529183019190830190600101613219565b5050505082810361014084015261324d8186613185565b90508281036101608401526132628185613185565b98975050505050505050565b600082601f83011261327f57600080fd5b8135602067ffffffffffffffff82111561329b5761329b612fdf565b8160051b6132aa82820161301e565b92835284810182019282810190878511156132c457600080fd5b83870192505b848310156132e3578235825291830191908301906132ca565b979650505050505050565b600080600080600060a0868803121561330657600080fd5b85359450602086013567ffffffffffffffff8082111561332557600080fd5b61333189838a0161304f565b9550604088013591508082111561334757600080fd5b61335389838a0161326e565b9450606088013591508082111561336957600080fd5b506133768882890161326e565b92505060808601356133878161315a565b809150509295509295909350565b600081518084526020808501945080840160005b838110156131be578151875295820195908201906001016133a9565b6060815260006133d86060830186612f0a565b82810360208401526133ea8186613395565b905082810360408401526133fe8185613395565b9695505050505050565b600080600060e0848603121561341d57600080fd5b833561342881612f62565b92506020603f8501861361343b57600080fd5b613443612ff5565b8060c087018881111561345557600080fd5b8388015b8181101561312757803561346c81612f62565b8452928401928401613459565b60006020828403121561348b57600080fd5b815161255981612f62565b6000602082840312156134a857600080fd5b81516125598161315a565b6020808252600a908201526910931050d2d7d31254d560b21b604082015260600190565b60208082526006908201526514105554d15160d21b604082015260600190565b6020808252600a90820152694e4f545f45584953545360b01b604082015260600190565b600181811c9082168061352f57607f821691505b60208210810361354f57634e487b7160e01b600052602260045260246000fd5b50919050565b634e487b7160e01b600052601160045260246000fd5b60006001820161357d5761357d613555565b5060010190565b8181038181111561055857610558613555565b634e487b7160e01b600052603260045260246000fd5b6bffffffffffffffffffffffff198360601b168152600082516135d7816014850160208701612ee6565b919091016014019392505050565b600080604083850312156135f857600080fd5b825161360381612f62565b6020939093015192949293505050565b601f821115610a6b57600081815260208120601f850160051c8101602086101561363a5750805b601f850160051c820191505b81811015610f3d57828155600101613646565b815167ffffffffffffffff81111561367357613673612fdf565b61368781613681845461351b565b84613613565b602080601f8311600181146136bc57600084156136a45750858301515b600019600386901b1c1916600185901b178555610f3d565b600085815260208120601f198616915b828110156136eb578886015182559484019460019091019084016136cc565b50858210156137095787850151600019600388901b60f8161c191681555b5050505050600190811b01905550565b8082018082111561055857610558613555565b600081600019048311821515161561374657613746613555565b500290565b60008261376857634e487b7160e01b600052601260045260246000fd5b500490565b7f416363657373436f6e74726f6c3a206163636f756e74200000000000000000008152600083516137a5816017850160208801612ee6565b7001034b99036b4b9b9b4b733903937b6329607d1b60179184019182015283516137d6816028840160208801612ee6565b01602801949350505050565b634e487b7160e01b600052603160045260246000fd5b60008161380757613807613555565b50600019019056fea2646970667358221220bb0f376968afad81a0ade6ee5fee4039e9eb36e365e03ea2d5c6419a835f2d6764736f6c63430008100033",
  "immutableReferences": {},
  "source": "// SPDX-License-Identifier: SimPL-2.0\n\npragma solidity ^0.8.0;\n\nimport \"../know-token/KnowlageToken.sol\";\nimport \"../know-proxy/TokenProxy.sol\";\nimport \"../know-proxy/BlackListProxy.sol\";\nimport \"../know-proxy/TransferProxy.sol\";\nimport \"../know-proxy/ReceiveFeeProxy.sol\";\nimport \"../know-template/TicketERC20Template.sol\";\nimport \"../know-interface/IReceiver.sol\";\nimport \"../know-interface/IBlackList.sol\";\n\nimport \"@openzeppelin/contracts/access/AccessControl.sol\";\nimport \"@openzeppelin/contracts/security/Pausable.sol\";\n\nimport \"@openzeppelin/contracts/token/ERC20/IERC20.sol\";\nimport \"@openzeppelin/contracts/utils/structs/EnumerableSet.sol\";\nimport \"@openzeppelin/contracts/utils/math/SafeMath.sol\";\nimport \"@openzeppelin/contracts/proxy/Clones.sol\";\n\n/**\n * @title Major Factory Contract\n * @notice HorseRace is a NFT horse racing metaverse based on pylogon\n * @notice ....\n *\n * @notice Website: https://horse-racing.io/\n * @notice Docs: https://horse-racing.gitbook.io/horse-racing-docs/\n * \n * @dev Version: v1.0.1\n */\ncontract SubjectTemplate is Initializable, AccessControl, Pausable {\n    using SafeMath for uint256;\n    using EnumerableSet for EnumerableSet.Bytes32Set;\n    using EnumerableSet for EnumerableSet.AddressSet;\n\n    struct Subject {\n        /** @notice  */\n        address tuitionToken;\n        address ticketToken;\n        address creater;\n        uint256 totalShares;\n        uint256 joinShares;\n        uint256 uintTuitionAmount;\n        uint256 endTime;\n        uint256 freeTime;\n        uint256 status;\n        string descriptionURI;\n        EnumerableSet.AddressSet members;\n        EnumerableSet.AddressSet teachers;\n        mapping (address => uint256) shares;\n        mapping (address => uint256) tickets;\n    }\n\n    struct Courseware {\n        string descriptionURI;\n        bytes32[] freeCoursewareURIs;\n        bytes32[] otherCoursewareURIs;\n        uint256 reports;\n        uint256 status;\n        bool isFreeWhenEnd;\n    }\n\n    /** @notice Version of contract */\n    string constant public LASTEST_VERSION = \"v1.0.1\";\n\n    /** @notice The role of access control - (admin role) */\n    bytes32 constant public ADMIN_ROLE = keccak256(\"ADMIN_ROLE\");\n\n    /** @notice Address of token proxy contract - For subject mint token */\n    TokenProxy public tokenProxy;\n\n    /** @notice Address of transfer proxy contract - For subject transfer token */\n    TransferProxy public transferProxy;\n\n    /** @notice Address of black list proxy contract - For subject black list */\n    BalckListProxy public blackListProxy;\n\n    /** @notice Address of fee receiver proxy contract - For subject transfer fee */\n    ReceiveFeeProxy public receiveFeeProxy;\n\n    /** @notice Address of ticket lp token contract - For subject transfer ticket token */\n    address public ticketERC20Template;\n\n    string public subjectURI;\n\n    EnumerableSet.Bytes32Set private _subjectIds;\n\n    mapping (bytes32 => Subject) private _subjects;\n\n    mapping (address => EnumerableSet.Bytes32Set) private _applys;\n    mapping (address => EnumerableSet.Bytes32Set) private _joineds;\n\n    mapping (address => EnumerableSet.Bytes32Set) private _teaching;\n    mapping (bytes32 => mapping (address => Courseware)) private _coursewares;\n\n    event AskNewSubject(bytes32 subjectId, address tuitionToken, address ticketToken);\n    event JoinSubject(address ticketToken, uint256 members, uint256 teachers);\n    event ExitSubject(address ticketToken, uint256 amount, uint256 members);\n    event UploadCourseware(uint256 members, uint256 coursewareURIs);\n    event VoteTo(uint256 leftTickets, uint256 knowAmount);\n    event SwapReward(uint256 amount, uint256 fee, address tuitionToken);\n\n    function _transfer(\n        address tuitionToken, address from, address to, uint256 amount\n    ) private returns (bool) {\n        if (tuitionToken == address(0)) {\n            // require(msg.value >= amount, \"INVALID_AMOUNT\");\n            payable(from).transfer(amount);\n            return true;\n        } else {\n            return transferProxy.transferFrom(tuitionToken, from, to, amount);\n        }\n    }\n\n    function _mintKnowToken(address account, uint256 amount) private {\n        address token = tokenProxy.getImplementation();\n        KnowlageToken(token).mintTo(account, amount);\n    }\n\n    modifier isBlackList() {\n        address blackList = blackListProxy.getImplementation();\n        require(!IBlackList(blackList).isBlackList(_msgSender()), \"BLACK_LIST\");\n        require(!paused(), \"PAUSED\");\n\n        _;\n    }\n\n    function initialize(\n        address admin, address[5] memory proxys, string memory _subjectURI\n    ) public initializer {\n        _grantRole(ADMIN_ROLE, admin);\n\n        subjectURI = _subjectURI;\n\n        tokenProxy = TokenProxy(payable(proxys[0]));\n        transferProxy = TransferProxy(proxys[1]);\n        blackListProxy = BalckListProxy(payable(proxys[2]));\n    }\n\n    function getSubjectDetail(bytes32 subjectId) public view returns (\n        string memory uri, address[3] memory addrs, uint256[6] memory settings,\n        address[] memory members, address[] memory teachers\n    ) {\n        uri = _subjects[subjectId].descriptionURI;\n\n        addrs[0] = _subjects[subjectId].tuitionToken;\n        addrs[1] = _subjects[subjectId].ticketToken;\n        addrs[2] = _subjects[subjectId].creater;\n\n        settings[0] = _subjects[subjectId].totalShares;\n        settings[1] = _subjects[subjectId].joinShares;\n        settings[2] = _subjects[subjectId].uintTuitionAmount;\n        settings[3] = _subjects[subjectId].endTime;\n        settings[4] = _subjects[subjectId].freeTime;\n        settings[5] = _subjects[subjectId].status;\n\n        uint256 length = _subjects[subjectId].members.length();\n        members = new address[](length);\n\n        for (uint256 index = 0; index < length; index++) {\n            members[index] = _subjects[subjectId].members.at(index);\n        }\n\n        length = _subjects[subjectId].teachers.length();\n        teachers = new address[](length);\n\n        for (uint256 index = 0; index < length; index++) {\n            teachers[index] = _subjects[subjectId].teachers.at(index);\n        }\n    }\n\n    function getSubjectCourseware(\n        bytes32 subjectId, address teacher\n    ) public view returns (string memory uri, bytes32[] memory free, bytes32[] memory other) {\n        uri = _coursewares[subjectId][teacher].descriptionURI;\n        free = _coursewares[subjectId][teacher].freeCoursewareURIs;\n\n        if (_subjects[subjectId].endTime > block.timestamp) {\n            if (_coursewares[subjectId][teacher].isFreeWhenEnd)\n                other =  _coursewares[subjectId][teacher].otherCoursewareURIs;\n        } else {\n            if (_subjects[subjectId].members.contains(_msgSender()))\n                other =  _coursewares[subjectId][teacher].otherCoursewareURIs;\n        }\n    }\n\n    function togglePause(bool status) public onlyRole(ADMIN_ROLE) {\n        if (status) _pause();\n        else _unpause();\n    }\n\n    function askNewSubject(\n        address tuitionToken, uint256[5] memory parms, string memory descriptionURI\n    ) public payable isBlackList {\n        require(parms[4] > 0, \"INVALID_SHARES\");\n\n        bytes32 subjectId = keccak256(abi.encodePacked(tuitionToken, descriptionURI));\n\n        _subjects[subjectId].tuitionToken = tuitionToken;\n        _subjects[subjectId].creater = _msgSender();\n        _subjects[subjectId].totalShares = parms[0];\n        _subjects[subjectId].joinShares = parms[4];\n        _subjects[subjectId].uintTuitionAmount = parms[1];\n        _subjects[subjectId].endTime = parms[2];\n        _subjects[subjectId].freeTime = parms[3];\n        _subjects[subjectId].members.add(_msgSender());\n        _subjects[subjectId].shares[_msgSender()] = parms[4];\n\n        if (parms[1] > 0) {\n            uint256 tuitionAmount = parms[4] > 0 ? parms[1].mul(parms[4]) : parms[1];\n            require(_transfer(tuitionToken, _msgSender(), address(this), tuitionAmount), \"TRANSFER_FAILD\");\n\n            _subjects[subjectId].ticketToken = Clones.clone(ticketERC20Template);\n            TicketERC20Template ticket = TicketERC20Template(_subjects[subjectId].ticketToken);\n            ticket.initialize(address(this), 100000000e18);\n            ticket.transfer(_msgSender(), tuitionAmount.mul(10000));\n            _subjects[subjectId].tickets[_msgSender()] = tuitionAmount;\n        }\n\n        _applys[_msgSender()].add(subjectId);\n        _joineds[_msgSender()].add(subjectId);\n        _subjectIds.add(subjectId);\n\n        emit AskNewSubject(subjectId, tuitionToken, _subjects[subjectId].ticketToken);\n    }\n\n    function joinSubject(bytes32 subjectId, uint256 shares) public payable isBlackList {\n        require(shares > 0, \"INVALID_SHARES\");\n        require(_subjectIds.contains(subjectId), \"NOT_EXISTS\");\n\n        Subject storage subject = _subjects[subjectId];\n        require(subject.totalShares == 0 || subject.joinShares < subject.totalShares, \"FULL\");\n\n        if (subject.uintTuitionAmount > 0) {\n            uint256 uintAmount = subject.uintTuitionAmount;\n            uint256 tuitionAmount = shares > 0 ? uintAmount.mul(shares) : uintAmount;\n\n            require(_transfer(\n                subject.tuitionToken, _msgSender(), address(this), tuitionAmount\n            ), \"TRANSFER_FAILD\");\n\n            if (subject.ticketToken != address(0)) {\n                TicketERC20Template ticketToken = TicketERC20Template(subject.ticketToken);\n                ticketToken.transfer(_msgSender(), tuitionAmount);\n            }\n\n            subject.joinShares = subject.joinShares.add(shares);\n            uint256 ticket = _subjects[subjectId].tickets[_msgSender()].add(tuitionAmount);\n            _subjects[subjectId].tickets[_msgSender()] = ticket;\n        }\n\n        subject.members.add(_msgSender());\n        shares = shares.add(subject.shares[_msgSender()]);\n        subject.shares[_msgSender()] = shares;\n        _joineds[_msgSender()].add(subjectId);\n\n        emit JoinSubject(subject.ticketToken, subject.members.length(), subject.teachers.length());\n    }\n\n    function exitSubject(bytes32 subjectId) public payable isBlackList {\n        require(_subjectIds.contains(subjectId), \"NOT_EXISTS\");\n\n        uint256 amount;\n        Subject storage subject = _subjects[subjectId];\n        require(subject.members.contains(_msgSender()), \"NOT_JOIN\");\n\n        if (subject.uintTuitionAmount > 0) {\n            amount = subject.shares[_msgSender()].mul(subject.uintTuitionAmount);\n\n            require(_transfer(\n                subject.ticketToken, _msgSender(), address(this), amount.mul(10000)\n            ), \"INVALID_TICKET\");\n\n            require(_transfer(subject.tuitionToken, address(this), _msgSender(), amount));\n        }\n\n        subject.members.remove(_msgSender());\n        _joineds[_msgSender()].remove(subjectId);\n\n        subject.joinShares = subject.joinShares.sub(subject.shares[_msgSender()]);\n        delete subject.shares[_msgSender()];\n\n        emit ExitSubject(subject.ticketToken, amount, subject.members.length());\n    }\n\n    function uploadCourseware(\n        bytes32 subjectId, string memory descriptionURI, bytes32[] memory freeCoursewareURIs,\n        bytes32[] memory otherCoursewareURIs, bool isFreeWhenEnd\n    ) public isBlackList {\n        require(_subjectIds.contains(subjectId), \"NOT_EXISTS\");\n        \n        if (_teaching[_msgSender()].contains(subjectId)) {\n            delete _coursewares[subjectId][_msgSender()].freeCoursewareURIs;\n            delete _coursewares[subjectId][_msgSender()].otherCoursewareURIs;\n        } else {\n            _teaching[_msgSender()].add(subjectId);\n            _subjects[subjectId].teachers.add(_msgSender());\n            _coursewares[subjectId][_msgSender()].descriptionURI = descriptionURI;\n        }\n\n        _coursewares[subjectId][_msgSender()].isFreeWhenEnd = isFreeWhenEnd;\n        _coursewares[subjectId][_msgSender()].freeCoursewareURIs = freeCoursewareURIs;\n        _coursewares[subjectId][_msgSender()].otherCoursewareURIs = otherCoursewareURIs;\n\n        uint256 coursewareURIs = freeCoursewareURIs.length + otherCoursewareURIs.length;\n\n        emit UploadCourseware(_subjects[subjectId].members.length(), coursewareURIs);\n    }\n\n    function voteTo(bytes32 subjectId, address teacher, uint256 ticket) public isBlackList {\n        require(_subjectIds.contains(subjectId), \"NOT_EXISTS\");\n\n        Subject storage subject = _subjects[subjectId];\n        require(subject.members.contains(_msgSender()), \"NOT_JOIN\");\n        require(subject.tickets[_msgSender()] > 0, \"TICKETS_OUT\");\n\n        uint256 amount = subject.tickets[_msgSender()];\n        \n        if (teacher == address(0) && ticket == 0) {\n            uint256 teachers = subject.teachers.length();\n            amount = amount.mul(10000).div(teachers);\n\n            for (uint256 index = 0; index < teachers; index++) {\n                teacher = subject.teachers.at(index);\n                _transfer(subject.tuitionToken, _msgSender(), teacher, amount);\n            }\n\n            _mintKnowToken(_msgSender(), subject.tickets[_msgSender()]);\n            subject.tickets[_msgSender()] = 0;\n\n            emit VoteTo(0, amount.div(10000).mul(teachers));\n        } else {\n            require(subject.teachers.contains(teacher), \"TEACHER_NOT_EXISTS\");\n            require(ticket > 0 && ticket <= amount, \"INVALID_TICKETS\");\n\n            _transfer(subject.tuitionToken, _msgSender(), teacher, ticket.mul(10000));\n\n            _mintKnowToken(_msgSender(), ticket);\n            subject.tickets[_msgSender()] = subject.tickets[_msgSender()] - amount;\n\n            emit VoteTo(subject.tickets[_msgSender()], ticket);\n        }\n    }\n\n    function swapReward(bytes32 subjectId, uint256 amount) public isBlackList {\n        require(_subjectIds.contains(subjectId), \"NOT_EXISTS\");\n\n        Subject storage subject = _subjects[subjectId];\n        require(subject.endTime > block.timestamp, \"NOT_END\");\n        require(subject.teachers.contains(_msgSender()), \"TEACHER_NOT_EXISTS\");\n        require(amount > 0, \"INVALID_AMOUNT\");\n\n        require(_transfer(\n            subject.ticketToken, _msgSender(), address(this), amount.mul(10000)\n        ), \"INVALID_TICKET\");\n\n        address receivePro = receiveFeeProxy.getImplementation();\n        (address to, uint256 rate) = IReceiver(receivePro).getReceiver();\n        uint256 fee = amount.mul(10000).div(rate);\n\n        _transfer(subject.tuitionToken, address(this), _msgSender(), amount.sub(fee));\n        _transfer(subject.tuitionToken, address(this), to, fee);\n        _mintKnowToken(_msgSender(), amount);\n\n        emit SwapReward(amount.sub(fee), fee, subject.tuitionToken);\n    }\n}",
  "sourcePath": "/Users/cea/Projects/myself/knowlage-dapp/contracts/know-template/SubjectTemplate.sol",
  "compiler": {
    "name": "solc",
    "version": "0.8.16+commit.07a7930e.Emscripten.clang"
  },
  "schemaVersion": "3.4.9",
  "updatedAt": "2022-12-13T17:38:38.852Z",
  "devdoc": {
    "details": "Version: v1.0.1",
    "kind": "dev",
    "methods": {
      "getRoleAdmin(bytes32)": {
        "details": "Returns the admin role that controls `role`. See {grantRole} and {revokeRole}. To change a role's admin, use {_setRoleAdmin}."
      },
      "grantRole(bytes32,address)": {
        "details": "Grants `role` to `account`. If `account` had not been already granted `role`, emits a {RoleGranted} event. Requirements: - the caller must have ``role``'s admin role. May emit a {RoleGranted} event."
      },
      "hasRole(bytes32,address)": {
        "details": "Returns `true` if `account` has been granted `role`."
      },
      "paused()": {
        "details": "Returns true if the contract is paused, and false otherwise."
      },
      "renounceRole(bytes32,address)": {
        "details": "Revokes `role` from the calling account. Roles are often managed via {grantRole} and {revokeRole}: this function's purpose is to provide a mechanism for accounts to lose their privileges if they are compromised (such as when a trusted device is misplaced). If the calling account had been revoked `role`, emits a {RoleRevoked} event. Requirements: - the caller must be `account`. May emit a {RoleRevoked} event."
      },
      "revokeRole(bytes32,address)": {
        "details": "Revokes `role` from `account`. If `account` had been granted `role`, emits a {RoleRevoked} event. Requirements: - the caller must have ``role``'s admin role. May emit a {RoleRevoked} event."
      },
      "supportsInterface(bytes4)": {
        "details": "See {IERC165-supportsInterface}."
      }
    },
    "title": "Major Factory Contract",
    "version": 1
  },
  "userdoc": {
    "kind": "user",
    "methods": {
      "ADMIN_ROLE()": {
        "notice": "The role of access control - (admin role) "
      },
      "LASTEST_VERSION()": {
        "notice": "Version of contract "
      },
      "blackListProxy()": {
        "notice": "Address of black list proxy contract - For subject black list "
      },
      "receiveFeeProxy()": {
        "notice": "Address of fee receiver proxy contract - For subject transfer fee "
      },
      "ticketERC20Template()": {
        "notice": "Address of ticket lp token contract - For subject transfer ticket token "
      },
      "tokenProxy()": {
        "notice": "Address of token proxy contract - For subject mint token "
      },
      "transferProxy()": {
        "notice": "Address of transfer proxy contract - For subject transfer token "
      }
    },
    "notice": "HorseRace is a NFT horse racing metaverse based on pylogon....Website: https://horse-racing.io/Docs: https://horse-racing.gitbook.io/horse-racing-docs/ ",
    "version": 1
  }
}